:020000040800F2
:100000001004002001010008D10D0008390D00087E
:10001000CD0D00086D010008010F00080000000070
:10002000000000000000000000000000390E000881
:1000300071010008000000000D0E00083B0E0008D2
:100040001B0100081B0100081B0100081B01000820
:100050001B0100081B0100081B0100081B01000810
:100060001B0100081B0100081B0100081B01000800
:100070001B0100081B0100081B0100081B010008F0
:100080001B0100081B0100081B0100081B010008E0
:100090001B0100081B0100081B0100081B010008D0
:1000A0001B0100081B0100081B0100081B010008C0
:1000B0001B0100081B0100081B0100081B010008B0
:1000C0001B0100081B0100081B0100081B010008A0
:1000D0001B0100081B0100081B0100081B01000890
:1000E0001B0100081B0100081B010008DFF80CD0F1
:1000F00000F02AF800480047250F000810040020EF
:100100000648804706480047FEE7FEE7FEE7FEE7B1
:10011000FEE7FEE7FEE7FEE7FEE7FEE7A90E0008C2
:10012000ED000008D2B201E000F8012B491EFBD21D
:1001300070470022F6E710B513460A4604461946F2
:10014000FFF7F0FF204610BD064C074D06E0E068C3
:1001500040F0010394E8070098471034AC42F6D30E
:10016000FFF7C8FF640F0008840F000800BFFEE718
:10017000704700BFFEE7000070B5044600F0A8F924
:1001800006462546681C10B104480078054400BFA7
:1001900000F09EF9801BA842FAD370BD0800002031
:1001A0002DE9F84703460024002000258446002757
:1001B00000226EE14FF0010808FA02F4D1F8008045
:1001C00008EA0400A0427DD1DFF8D0A2D1F8048073
:1001D000A8EB0A09D0453AD014DCB8F1030F50D08F
:1001E00009DCB8F1000F31D0B8F1010F1CD0B8F123
:1001F000020F49D120E0B8F1110F18D0B8F1120F59
:1002000042D11EE0B9F5881F25D006DCB9F5803F44
:1002100020D0B9F5801F37D11AE0B9F5001F18D0EA
:10022000B9F5041F30D117E0D1F80CC02DE0D1F89A
:100230000C8008F1040C28E0D1F80C8008F1080CBF
:1002400023E0D1F80C8008F10C0C1EE000BF00BFC9
:1002500000BF00BF00BF00BFD1F80880B8F1000F99
:1002600002D14FF0040C0BE0D1F80880B8F1010F77
:1002700003D14FF0080C1C6102E04FF0080C5C61E8
:1002800003E04FF0000C00E000BF00BFFF2801D8E2
:10029000984601E003F104084646FF2802D84FEAD9
:1002A000820803E0A2F108084FEA88084746D6F81A
:1002B00000804FF00F0909FA07F928EA09080CFA3B
:1002C00007F900E088E048EA0908C6F80080D1F89C
:1002D000048008F08058B8F1805F7DD100BFDFF85E
:1002E000C081D8F8188048F00108DFF8B491C9F847
:1002F0001880C846D8F8188008F00108CDF80080AA
:1003000000BF00BF4FEAB9384FEA920958F82950A8
:100310004FEA82784FEA18794FF00F0808FA09F887
:1003200025EA0805DFF87C81434502D14FF000083B
:1003300016E0DFF87481434502D14FF001080FE069
:10034000DFF86881434502D14FF0020808E0DFF88A
:100350006081434502D14FF0030801E04FF00408EB
:100360004FEA82794FEA197908FA09F848EA05054F
:10037000DFF840814FEA920948F82950D1F804800B
:1003800008F48038B8F5803F0AD1DFF82C81D8F81E
:10039000008048EA0008DFF82091C9F8008009E0F1
:1003A000DFF81481D8F8008028EA0008DFF8089107
:1003B000C9F80080D1F8048008F40038B8F5003F8F
:1003C00010D1DFF8F48008F10408D8F8008048EA7A
:1003D0000008DFF8E49000E05AE009F10409C9F8E8
:1003E00000800DE0DFF8D08008F10408D8F8008024
:1003F00028EA0008DFF8C09009F10409C9F8008074
:10040000D1F8048008F48018B8F5801F0ED1DFF809
:10041000A88008F10808D8F8008048EA0008DFF84A
:10042000989009F10809C9F800800DE0DFF888808C
:1004300008F10808D8F8008028EA0008DFF878906A
:1004400009F10809C9F80080D1F8048008F40018FF
:10045000B8F5001F0ED1DFF8608008F10C08D8F85D
:10046000008048EA0008DFF8509009F10C09C9F84B
:1004700000800DE0DFF8408008F10C08D8F800801B
:1004800028EA0008DFF8309009F10C09C9F800806B
:10049000521C102AFFF48EAEBDE8F8870000111040
:1004A0000010024000080140000C01400010014013
:1004B000001401400800014000040140C2684A40A5
:1004C000C26070470AB1016101E00B04036170472B
:1004D00001480068704700000000002003480068E1
:1004E000034909780844014908607047000000206A
:1004F0000800002010B50848006840F010000649C8
:100500000860032000F098F8002000F007F800F0E1
:100510002BF8002010BD00000020024070B50446FA
:100520000E4800784FF47A71B1FBF0F00C4909687D
:10053000B1FBF0F5284600F0E5FB08B1012070BDE5
:10054000102C07D200222146501E00F037F8054833
:10055000046001E00120F2E70020F0E7080000203D
:100560000C0000200400002008B500BF114880697D
:1005700040F001000F4988610846806900F00100E1
:10058000009000BF00BF00BF0846C06940F0805027
:10059000C8610846C06900F08050009000BF00BFED
:1005A00000BF0549486820F0E06040F000704860F6
:1005B00000BF08BD00100240000001402DE9F05FBF
:1005C00080460D461646002700F004FC07463946D3
:1005D0002A46334601F00700C0F1070ABAF1040FBA
:1005E00002D94FF0040A01E0C0F1070AD14600F138
:1005F000040ABAF1070F02D24FF0000A01E0A0F19D
:10060000030AD4464FF0010A0AFA09FAAAF1010ACC
:100610000AEA020A0AFA0CFA4FF0010B0BFA0CFB79
:10062000ABF1010B0BEA030B4AEA0B0421464046EF
:1006300000F0D8FBBDE8F09F00BF00F00702064BBA
:1006400019684FF6FF031940044B0B4343EA02219C
:10065000014B196000BF70470CED00E00000FA0587
:1006600070B504460D4600266D48006800F007008E
:10067000A8420ED26A48006820F007002843684963
:1006800008600846006800F00700A84201D0012079
:1006900070BD207800F0020002281DD1207800F003
:1006A0000400042805D15F48406840F4E0605D49DB
:1006B0004860207800F00800082805D159484068B3
:1006C00040F46050574948605648406820F0F000B8
:1006D000A168084353494860207800F001000028D1
:1006E0005DD06068012806D14E48006800F40030F3
:1006F00090B90120CCE76068022806D1494800681B
:1007000000F0007040B90120C2E74648006800F0E0
:10071000020008B90120BBE74248406820F003000E
:10072000616808433F494860FFF7D2FE06466068AB
:10073000012810D108E0FFF7CBFE801B41F2883181
:10074000884201D90320A3E73648406800F00C0036
:100750000428F0D123E06068022810D108E0FFF7F8
:10076000B7FE801B41F28831884201D903208FE710
:100770002C48406800F00C000828F0D10FE008E099
:10078000FFF7A6FE801B41F28831884201D9032081
:100790007EE72448406800F00C000028F0D1204893
:1007A000006800F00700A8420ED91D48006820F03C
:1007B000070028431A4908600846006800F007004F
:1007C000A84201D0012063E7207800F0040004284B
:1007D00007D11448406820F4E060E16808431149FB
:1007E0004860207800F00800082808D10D484068CB
:1007F00020F46050216940EAC1000A49486000F0D5
:1008000017F808494968C1F30311074A515CC84009
:10081000064908600020FFF781FE002038E700004D
:1008200000200240001002404C0F00080C00002085
:10083000F0B585B00FF26C0C9CE8E01001A8A0E8C0
:10084000E0101CA52D680095002100220023002443
:100850000020194D696801F00C05F5B1042D02D096
:10086000082D19D101E0154819E001ADC1F3834607
:10087000AC5D01F4803555B10F4D6D68C5F3404551
:100880001DF805200D4D6543B5FBF2F302E00C4D5C
:1008900004FB05F3184602E000BF084800BF00BF94
:1008A00005B0F0BD02030405060708090A0B0C0D8C
:1008B0000E0F1010010200000010024000127A001A
:1008C00000093D00F8B504460025207800F001003D
:1008D000002878D0F848406800F00C0004280CD0BC
:1008E000F548406800F00C00082811D1F248406833
:1008F00000F48030B0F5803F0AD1EF48006800F482
:10090000003000285FD0606800285CD10120F8BD6D
:1009100000BF6068B0F5803F06D1E748006840F44A
:100920008030E549086028E0606858B9E24800680E
:1009300020F48030E04908600846006820F48020F8
:1009400008601AE06068B0F5A02F0BD1DA480068A3
:1009500040F48020D84908600846006840F48030A0
:1009600008600AE0D448006820F48030D24908606A
:100970000846006820F48020086000BF606888B1E5
:10098000FFF7A6FD054606E0FFF7A2FD401B642821
:1009900001D90320BBE7C848006800F400300028F4
:1009A000F2D010E0FFF794FD054606E0FFF790FD5A
:1009B000401B642801D90320A9E7BF48006800F460
:1009C00000300028F2D1207800F00200022857D130
:1009D000B948406800F00C0050B1B748406800F0DA
:1009E0000C00082818D1B448406800F4803098B949
:1009F000B148006800F0020020B12069012801D050
:100A0000012084E7AC48006820F0F800616940EA02
:100A1000C100A949086033E02069E8B10120A74975
:100A20000860FFF755FD054606E0FFF751FD401B46
:100A3000022801D903206AE79F48006800F00200FD
:100A40000028F2D09C48006820F0F800616940EA74
:100A5000C1009949086013E0002098490860FFF739
:100A600037FD054606E0FFF733FD401B022801D99C
:100A700003204CE79048006800F002000028F2D103
:100A8000207800F0080008282DD1A069B8B1012015
:100A90008B490860FFF71CFD054606E0FFF718FDCF
:100AA000401B022801D9032031E78348406A00F047
:100AB00002000028F2D0012000F0AAF913E0002083
:100AC0007F490860FFF704FD054606E0FFF700FDDB
:100AD000401B022801D9032019E77748406A00F03B
:100AE00002000028F2D1207800F00400042873D11D
:100AF00000267148C06900F0805070B900BF6E4890
:100B0000C06940F080506C49C8610846C06900F077
:100B10008050009000BF00BF01266A48006800F4C2
:100B20008070B0B96748006840F48070654908601B
:100B3000FFF7CEFC054606E0FFF7CAFC401B642821
:100B400001D90320E3E65F48006800F480700028C4
:100B5000F2D000BFE068012806D15748006A40F093
:100B600001005549086227E0E06858B95248006A18
:100B700020F00100504908620846006A20F0040095
:100B8000086219E0E06805280BD14B48006A40F084
:100B90000400494908620846006A40F00100086202
:100BA0000AE04548006A20F001004349086208460F
:100BB000006A20F00400086200BFE068A0B1FFF7FF
:100BC00087FC054609E0FFF783FC401B41F28831B2
:100BD000884202D903209AE622E03748006A00F0F2
:100BE00002000028EFD012E0FFF772FC054608E093
:100BF000FFF76EFC401B41F28831884201D9032087
:100C000085E62D48006A00F002000028F0D1012E90
:100C100005D12948C06920F080502749C86100BF2C
:100C2000E069C8B32448406800F00C00082860D090
:100C3000E069022848D1002020490866FFF748FCF7
:100C4000054606E0FFF744FC401B022801D90320BB
:100C50005DE61948006800F000700028F2D1206AB3
:100C6000B0F5803F07D11448406820F40030A168F7
:100C7000084311494860D4E9080108430E4949680E
:100C800021F4741108430C49486001200B4908669F
:100C9000FFF71EFC054607E02DE0FFF719FC401B9F
:100CA000022801D9032032E60348006800F00070F2
:100CB0000028F2D01FE00000001002400000424275
:100CC000800442420070004000200C490866FFF793
:100CD000FFFB054606E0FFF7FBFB401B022801D99E
:100CE000032014E60648006800F000700028F2D1E6
:100CF00001E001200BE6002009E60000000042426E
:100D00000010024070B504462546681EB0F1807F91
:100D100001D301200FE0681E4FF0E02148610F2150
:100D20004FF0FF3000F05EF800204FF0E0218861C6
:100D300007200861002070BD00BFFEE700B585B048
:100D40000020019002900390049000BF1D4880692C
:100D500040F010001B4988610846806900F01000CF
:100D6000009000BF00BF00BF0846806940F020002F
:100D700088610846806900F02000009000BF00BF35
:100D800000BF0846806940F0040088610846806919
:100D900000F00400009000BF00BF00224FF400519B
:100DA0000948FFF78FFB4FF400500190012002909B
:100DB000002003900220049001A90348FFF7F0F9F6
:100DC00005B000BD001002400010014000BFFEE76A
:100DD0007047000002480068C0F30220704700001E
:100DE0000CED00E010B5002807DA0A07140E054ADA
:100DF00000F00F031B1FD45403E00A07130E024A2E
:100E0000135410BD18ED00E000E400E0704700004E
:100E100008B508490968C9084FF47A72B1FBF2F1C4
:100E20004143009100BF00BF00994A1E0092002973
:100E3000F9D108BD0C000020704710B5FFF74EFB3C
:100E400010BD00B58FB0282105A8FFF772F9142155
:100E50006846FFF76EF90120059000040690002017
:100E600007900120099002200C90C1030D914FF4CE
:100E7000E0110E9105A8FFF725FD08B1FFF779F9FC
:100E80000F20009002200190002002904FF480601B
:100E900003900020049002216846FFF7E1FB08B1AF
:100EA000FFF767F90FB000BD1148006840F001007E
:100EB0000F490860084640680E4908400C494860E0
:100EC000084600680C49084009490860084600685F
:100ED00020F4802008600846406820F4FE00486046
:100EE0004FF41F008860C803044908607047000081
:100EF000001002400000FFF8FFFFF6FE08ED00E0E2
:100F000000BFFEE702E008C8121F08C1002AFAD19C
:100F100070477047002001E001C1121F002AFBD179
:100F200070470000FFF7E6FAFFF78BFFFFF706FFB9
:100F300008E04FF400510448FFF7C0FA4FF4FA609C
:100F4000FFF71AF9F5E7000000100140000000006B
:100F50000000000001020304060708090000000069
:100F600001020304840F00080000002010000000AC
:100F7000040F0008940F0008100000200004000077
:100F8000140F000800000000100000000100000025
:040F900000A24A046D
:04000005080000ED02
:00000001FF
