:020000040800F2
:10000000980600209D010008CB0C0008E50B0008B5
:10001000C90C0008D10200084113000800000000CC
:10002000000000000000000000000000991200081D
:10003000D302000800000000CD0C00089B1200084D
:10004000B7010008B7010008B7010008B7010008B0
:10005000B7010008B7010008B7010008B7010008A0
:10006000B7010008B7010008B7010008B701000890
:10007000B7010008B7010008B7010008B701000880
:10008000B7010008B7010008B7010008B701000870
:10009000B7010008B7010008B7010008B701000860
:1000A000B7010008B7010008B7010008B701000850
:1000B000B7010008B7010008B7010008B701000840
:1000C000B7010008B7010008B7010008B701000830
:1000D000B7010008B7010008B7010008B701000820
:1000E000B7010008B7010008B7010008B701000810
:1000F000B7010008B7010008B7010008B701000800
:10010000B7010008B7010008B7010008B7010008EF
:10011000B7010008B7010008B7010008B7010008DF
:10012000B7010008B7010008B7010008B7010008CF
:10013000B7010008B7010008B7010008B7010008BF
:10014000B7010008B7010008B7010008B7010008AF
:10015000B7010008B7010008B7010008B70100089F
:10016000B7010008B7010008B7010008B70100088F
:10017000B7010008B7010008B7010008000000003F
:10018000B7010008B7010008DFF80CD000F08EF8C6
:1001900000480047D1130008980600200648804711
:1001A00006480047FEE7FEE7FEE7FEE7FEE7FEE75C
:1001B000FEE7FEE7FEE7FEE72513000889010008D9
:1001C0002DE9F05F0546002092469B46884606468C
:1001D000814640241BE0284641464746224600F01F
:1001E00054F853465A46C01A914110D31146184646
:1001F000224600F03BF82D1A67EB01084F462246D5
:100200000120002100F032F817EB00094E41201EBA
:10021000A4F10104DFDC484631462A464346BDE8E6
:10022000F09FD2B201E000F8012B491EFBD27047CB
:100230000022F6E710B513460A4604461946FFF7B2
:10024000F0FF204610BD421E12F8013F002BFBD1EB
:1002500011F8013B02F8013B002BF9D17047421C19
:1002600010F8011B0029FBD1801A7047202A04DBFB
:10027000203A00FA02F1002070479140C2F12003B9
:1002800020FA03F3194390407047202A04DB203AF8
:1002900021FA02F00021704721FA02F3D040C2F1A6
:1002A000200291400843194670470000064C074D54
:1002B00006E0E06840F0010394E807009847103436
:1002C000AC42F6D3FFF764FF408E0008608E000852
:1002D000FEE7704770B5044600F0F0F80546601C74
:1002E00002D004480078044400F0E8F8401BA04223
:1002F000FAD370BD240000202DE9F84F00224FF002
:10030000010803254FF00F0E0B6808FA02F4234092
:10031000A3426ED14E68012E05D0022E03D0112EBD
:1003200001D0122E12D186684FEA420C05FA0CF762
:10033000BE43CF6807FA0CF7374387604668A64389
:100340000C79C4F30014944034434460C6685700E9
:1003500005FA07FC8C6826EA0C06BC403443C460EE
:100360004C68022C01D0122C13D1D40800EB840469
:10037000A346D4F8209054074FEAD46A0EFA0AF63E
:1003800029EA06090E6906FA0AF646EA0906CBF8D2
:10039000206006680C7926EA0C0604F00304BC40D1
:1003A000344304604C68E40065D5364C266846F456
:1003B00080462660246822F0030604F480440094FA
:1003C000314C3444A446D4F808489607370F0EFA47
:1003D00007F6B4432D4EB04201D1002624E02C4E46
:1003E000B04201D101261FE02A4EB04202D10226BE
:1003F0001AE040E0284EB04201D1032614E0274E17
:10040000B04201D104260FE0254EB04201D10526AD
:100410000AE0244EB04201D1062605E0224EB04249
:1004200001D1072600E00826BE402643CCF8086824
:100430001E4E34684F689C43FF0300D51C43346054
:100440001A4C241D26684F689E43BF0300D51E43E7
:100450002660164E083634684F689C43FF0200D56C
:100460001C433460114E0C3634684F689C43BF0205
:1004700000D51C433460521C102AFFF445AFBDE880
:10048000F88F000044380240003001400000024074
:100490000004024000080240000C0240001002402C
:1004A0000014024000180240001C0240003C0140C1
:1004B0000AB1816170470904FBE7000001488068C8
:1004C000704700002400002002488168027811442F
:1004D00081607047240000200B4810B5016841F48A
:1004E00000710160016841F480610160016841F4BC
:1004F00080710160032000F061F8002000F006F830
:1005000000F024F8002010BD003C024070B50D4DF5
:1005100004464FF47A712878B1FBF0F00A49096873
:10052000B1FBF0F000F04AFB48B9102C07D20022D2
:100530002146501E00F022F800206C6070BD0120A2
:1005400070BD000024000020300000200A4808B5DB
:10055000016841F480410160006800F4804000902F
:100560000548001F016841F080510160006800F0FB
:100570008050009008BD000044380240F0B40E4B9B
:100580001B680C46C3F30223C3F10705042D00D9F1
:100590000425191D072901D2002300E0DB1E0126D6
:1005A00006FA05F1491E214099409E40761E1640EC
:1005B0003143F0BC00F0C5BE0CED00E0064900F090
:1005C000070208684FF6FF03184040EA0220034A7A
:1005D00010430860704700000CED00E00000FA05D1
:1005E0002DE9F0470E46050065D0DFF81481D8F8F4
:1005F0000000F7B200F00F00B04207D288F8007098
:10060000D8F8000000F00F00B04254D128683D4CEB
:10061000810712D5400703D5206840F4E0502060E0
:100620002878000703D5206840F4604020602068E7
:10063000A96820F0F000084320602878C0072DD07A
:10064000304968680839012812D0022813D00328DD
:1006500011D00968890700292DDA216821F00301EA
:1006600001432160FFF72AFF814641F2883A0EE0FC
:1006700009688903EFE709688901ECE7FFF71EFFC6
:10068000A0EB0901514502D90320BDE8F08720689D
:10069000696800F00C00B0EB810FEFD1D8F80010C2
:1006A000404601F00F01B14207D90770006800F021
:1006B0000F00B04201D00120E7E72878400705D5B8
:1006C0002068E96820F4E05008432060287800079B
:1006D00006D52068296920F4604040EAC100206006
:1006E00000F018F82168084AC1F30311515CC840B2
:1006F0000649086006480068FFF708FF0020C4E7C5
:10070000003C024008380240308E000830000020D3
:1007100028000020154810B5006810F00C0214489D
:1007200013D04110042A0FD0082A0ED10F4C241FD9
:100730002268236802F03F025B0207D52068C0F3FD
:100740008810A0FB010106E0084610BD2168C1F336
:100750008811A1FB00010023FFF732FD2168C1F3DE
:100760000141491C4900B0FBF1F010BD08380240BE
:100770000024F4002DE9F84F04006ED02078DFF853
:100780003C93C007A9F104054AD009F104000168AF
:10079000C1F38101012908D00068C0F3810002285B
:1007A0000AD1D9F80000400206D52868800337D561
:1007B00060680028E1D033E06068B0F5803F10D079
:1007C000B0F5A02F286810D020F480302860286869
:1007D00020F4802028606068A8B1FFF76FFE06460D
:1007E0000DE0286840F48030F4E740F48020286071
:1007F000F7E700BFFFF762FE801B642873D8286804
:100800008003F7D50CE0FFF759FE064605E000BF70
:10081000FFF754FE801B6428F0D828688003F7D4C3
:100820002078DFF89C8280074FF0000A3ED5A3486D
:10083000001D016811F00C0F08D00068C0F38100A2
:1008400002280BD1D9F80000400207D4286880079D
:1008500016D5E068012800D112E02BE1E068B8B1BC
:100860000120C8F80000FFF729FE064605E000BF9A
:10087000FFF724FE801B0228C0D828688007F7D520
:100880002868216920F0F80040EAC10028600DE0E6
:10089000C8F800A0FFF712FE064604E0FFF70EFEC0
:1008A000801B02281FD828688007F7D4207800070B
:1008B00022D5824E83486169703671B10121016091
:1008C000FFF7FCFD074604E0FFF7F8FDC01B022818
:1008D00009D830688007F7D50EE0C0F800A0FFF710
:1008E000EDFD074605E082E0FFF7E8FDC01B0228AA
:1008F0007DD830688007F7D42078400768D5DFF8C6
:10090000BCB100270BF13C0BDBF80000C0000BD49E
:10091000DBF8001041F08051CBF80010DBF800004C
:10092000012700F080500090674E3068C00510D459
:10093000306840F480703060FFF7C0FD009005E043
:10094000FFF7BCFD0099401A022850D83068C00556
:10095000F6D55A4EA0686C3601280FD005283068AD
:1009600010D020F001003060306820F004003060CA
:10097000A068B8B1FFF7A2FD00900FE0306840F02A
:100980000100F4E740F004003060F7E7FFF796FD60
:100990000099411A41F28830814266D83068800758
:1009A000F4D50EE0FFF78AFD009007E0FFF786FD23
:1009B0000099411A41F28830814256D83068800748
:1009C000F4D42FB1DBF8001021F08051CBF80010E7
:1009D000A069C8B33949091D0968C1F38101022919
:1009E0004AD00228504607D0C8F8600000E03CE03A
:1009F000FFF764FD04463BE04746C8F86000FFF798
:100A00005DFD064605E000BFFFF758FD801B02288C
:100A10002BD828688001F7D4D4E907010843A16ADC
:100A20002A4A490802EB0141626A41EA82110843FD
:100A300094F82C1040EA0161C9F8001001203866D2
:100A4000FFF73CFD044606E036E000BFFFF736FD49
:100A5000001B022809D828688001F7D52CE000BFC8
:100A6000FFF72CFD001B022802D90320BDE8F88FF8
:100A700028688001F4D41FE00128F7D0D9F80000DD
:100A8000E26900F48001914214D1226A00F03F0132
:100A900091420FD147F6C071626A0140914209D17B
:100AA000A26A00F44031914204D1E16A00F0706022
:100AB000884201D00120D9E70020D7E7043802405E
:100AC00000004742800E4742007000400000FFFFD8
:100AD00070B5040005D00025A56294F8510010B14E
:100AE00006E0012070BD84F85050204600F030F838
:100AF000022084F851002068016821F04001016063
:100B0000D4E901010843D4E90312114308436169A0
:100B10000843218B01F400710843E1690843216A0D
:100B20000843A16A084321680860A069042101EA1A
:100B30001040616A0843216848602068C16921F457
:100B40000061C1616565012084F85100002070BD1D
:100B500010B586B0044614216846FFF769FB1449B6
:100B60002068884221D113480021026842F4804263
:100B70000260006800F4804005900E48103802685A
:100B800042F002020260006800F0020005904FF49B
:100B9000204000900220CDE90101032003900520B0
:100BA000049069460448FFF7A7FB06B010BD00009B
:100BB00000380040403802400004024010B5401E9A
:100BC000B0F1807F01D3012010BD4FF0E0246061BF
:100BD0000F21601700F0B5FB0020A0610720206105
:100BE000002010BDFEE700002DE9F04186B0142181
:100BF0006846FFF71DFB23480024016841F080018F
:100C00000160016801F080010591016841F0040173
:100C10000160016801F004010591016841F00201E1
:100C20000160016801F002010591016841F00101D4
:100C300001600068144F00F001000590002220219F
:100C40003846FFF735FCDFF8448045F20206002203
:100C500031464046FFF72CFC202000900125CDE9CD
:100C60000154694638460394FFF746FB0096CDE9E8
:100C70000154694640460394FFF73EFB06B0BDE8C9
:100C8000F0810000303802400008024000040240B9
:100C90000C480B49022201604FF48271416000212F
:100CA0008160C0E90312012242615202C0E90621BB
:100CB0000162416281620A21C162FFF709BF00003F
:100CC000003800403C000020FEE7704770470000FD
:100CD0002DE9FF4F83B08A46DDE91184039D04B9F5
:100CE0000124434898F8002083882A449A4206D277
:100CF00098F80120C08802EB0A01814203D300204A
:100D000007B0BDE8F08F00206BE013997F2904D273
:100D10001399D8F80430203905E0BF2908D9139970
:100D2000D8F80430603901FB00B033F8100015E04A
:100D3000A82902D0B82907D011E000EB80020BEB04
:100D40004210D8F8041007E000EB401202EBC0128A
:100D5000D8F8041002EB0B0031F8100000900020CE
:100D600036E0009800FA09F0000416D5002711E0DB
:100D70000AEB070000B20026019007E0A81900B2B4
:100D8000059A019900F0D0F8761CF6B2A642F5D388
:100D90007F1CFFB2A742EBD317E01098A8B1002741
:100DA00011E00AEB070000B20026019007E0A81945
:100DB00000B2069A019900F0B7F8761CF6B2A64286
:100DC000F5D37F1CFFB2A742EBD3254409F1010004
:100DD000814698F800004845C3D8039DA2440BF112
:100DE0000100834698F8010058458ED8139887E78C
:100DF000000000202DE9F0411546124A069E1C46CF
:100E00009788B8421CD2D388994219D200EB050CBE
:100E1000ACF1010CBC4513DA0A19521E9A420FDAE2
:100E200093B21FFA8CF200F089F900F02FF96900F3
:100E30006143304600F062F9BDE8F04100F0C4B90A
:100E4000BDE8F0810000002038B51546049A1C4624
:100E5000A8420DD1A142009205DD091B491C0BB22D
:100E60000122214613E05A1A521C13B201220EE04D
:100E7000A1420FD1A842009205DD401B401C02B2E6
:100E80000123284603E02A1A521C12B2012300F063
:100E900065F838BD00922A4600F001F838BD2DE90A
:100EA000FC5F06469A4690460D46901B00D5404290
:100EB00007B2BAEB050000D540420FFA80F94FF0B7
:100EC000FF30464501DA012100E00146019151461B
:100ED000554500DA01208346A7EB090004B24046DD
:100EE0000C9A00F021F8C9F10000009016E02946A4
:100EF00030460C9A00F018F86000009900B2884261
:100F000005DDA4EB09010CB2019931440EB2B842DF
:100F100004DAE01904B205EB0B0005B24645E6D150
:100F20005545E4D1BDE8FC9F07B5002812DB0A4A0D
:100F3000938898420EDA00290CDBD288914209DAB4
:100F40008BB282B289B280B200F0F8F8012102A817
:100F500000F088F80EBD00000000002070B51546B6
:100F6000134A1C469388984221DAD28891421EDAAD
:100F700046199E4201DD1B1A1DB20B19934201DD79
:100F8000521A14B20A19521E93B24219521E92B248
:100F900089B280B200F0D2F8002614FB05F404E018
:100FA000012104A800F05EF8761CB442F8D870BDA8
:100FB0000000002008B500900448C18880880BB26A
:100FC00002B200210846FFF7C9FF08BD000000205B
:100FD00070B5094D4FF48044002221462846FFF7A2
:100FE00067FA1420FFF776F921462846BDE87040DD
:100FF0000122FFF75DBA0000000402402DE9F04134
:10100000C820FFF767F91549F0208880C88000F0F4
:101010003DF8FFF7DDFF124C14F8015B17E0207874
:1010200000F03CF86078A41C00F0800730F08006E7
:1010300004D03146204600F061F834443FB114F842
:10104000010BFF2801D14FF4FA70FFF743F96D1E31
:10105000EDB2E4D2BDE8F04100F0B6B800000020E7
:10106000D815000870B50D46044600F00FF806E0EC
:101070002088000A00F02AF8207800F027F86D1E7A
:10108000ADB2F5D2BDE8704000F09EB800224FF43A
:1010900080510148FFF70CBA0004024010B5044625
:1010A000002220210748FFF703FA0748016841F0B2
:1010B0004001016004480C300470001F016889077A
:1010C000FCD510BD000802400038004010B50446B1
:1010D000012220210748FFF7EBF90748016841F09A
:1010E0004001016004480C300470001F016889074A
:1010F000FCD510BD000802400038004070B50C4619
:101100000546012220210B48FFF7D2F90A48016861
:1011100041F04001016008490C31081F07E000BFA1
:1011200015F8012B0A7002689207FCD5641E002C8A
:10113000F6D170BD00080240003800402DE9F041B2
:10114000984615460E460746FFF7A0FF1D4CAF42D6
:1011500016D8A088854213D820883918284485B22B
:101160008FB22A20FFF79AFF380AFFF7AFFFF8B2D5
:10117000FFF7ACFF280AFFF7A9FFE8B2FFF7A6FFC9
:101180004046864217D8E188884214D8618808EB27
:101190000100721885B294B22B20FFF77FFF200A5E
:1011A000FFF794FFE0B2FFF791FF280AFFF78EFFE9
:1011B000E8B2FFF78BFF2C20FFF770FFBDE8F0418E
:1011C00000F002B800000020012211030148FFF7DF
:1011D0006FB90000000402402DE9FF5F9946DDE988
:1011E0001054DDE90E8792468B460646BDB90125AF
:1011F00015E0CDE90250CDE900874B4652465946ED
:101200003046FFF765FD2178884203D0C8B204B0AC
:10121000BDE8F09F3878641C00FB056086B220783A
:101220000028E6D1C0B2F2E72DE9F0410446FFF70D
:101230002DFF3620FFF732FF20460026F025154C03
:10124000012807D0022807D05027032812D00428ED
:101250000CD117E0002000E06020FFF737FFA580E9
:10126000E580268066800020FFF7A4FEBDE8F041FF
:10127000FFF7AABFC020FFF729FFA580E5802680E1
:101280006780F0E7A020FFF721FFA580E580278099
:10129000E8E70000000000207047FFF715B90000E4
:1012A00030B593B030216846FEF7C2FF14210CA878
:1012B000FEF7BEFF19480025016841F0805101602A
:1012C000006800F0805011901548016841F4804199
:1012D00001600068022400F4804011900120009019
:1012E000000401908001CDE9064008AA0420A8214D
:1012F00082E813000B906846FFF73CFA0CA90F2018
:1013000081E831004FF4A0500F90E00210900521C9
:101310000CA8FFF765F913B030BD0000403802405B
:10132000007000400548016841F470010160034904
:101330004FF00060803908607047000088ED00E0E1
:10134000FEE70907090E002804DB00F1E02080F821
:101350000014704700F00F0000F1E02080F8141D29
:10136000704702E008C8121F08C1002AFAD170476E
:101370007047002001E001C1121F002AFBD1704715
:1013800010B5002821D0114B0022001F196803E07E
:10139000814203D80A4649680029F9D152B113683D
:1013A000841A9C4204D1006818441060104602E080
:1013B000506000E0186039B102680B1A934203D103
:1013C0000B681A4402604968416010BD3400002077
:1013D0001FB5FFF781F8FFF763FFFFF705FCFFF785
:1013E00057FCFFF70BFE012202212A48FFF760F8A5
:1013F0000120FFF719FF4C20FFF7DCFD26A000F0CD
:10140000A7F801242849CDE90240CDE900414C2349
:101410004FF6FF7214210520FFF7DEFE234D2868EA
:10142000FFF7AEFF22A000F093F82649CDE9024075
:10143000CDE900414C234FF47842A0211920FFF759
:10144000CBFE2868FFF79CFF1FA000F081F80390F7
:101450000221224A0094CDE901214C234FF4FC6281
:10146000C8210820FFF7B8FE2868FFF789FF1C484D
:1014700050230090552241211846FFF7BBFC4FF640
:10148000E070EE230090EF2219460120FFF7DCFC0C
:10149000FEE700000004024053544D33324634301E
:1014A000375620495053000018000020200000202B
:1014B0004E522E656C656374726F6E696373202182
:1014C00021210000100000205354373738393A32B8
:1014D00034307832343020702E00000008000020B4
:1014E00010590008F0B50B30154D20F0070100240D
:1014F000144A0FE003688B420BD38B4205D95E1A66
:1015000043184768C3E9006700E04368136002C0FE
:1015100004E0021D10680028ECD12046002802D10A
:10152000286808B10020F0BD064A07481060074A45
:10153000121A22F00702C0E9002401202860D7E730
:1015400038000020340000209C0000209802002079
:10155000F8B50646FEF783FE0420FFF7C3FF1C4DD7
:101560000021286001701BA0006800903046FEF743
:1015700076FE0746002424E0305D641CC0281AD3A0
:10158000D02802D0D12816D10BE0305D641C812810
:1015900005D0A0F190012F290DD830300AE0A82005
:1015A00009E0305D641C91280FD0A0F180010F2963
:1015B00001D87030C0B28DF8000069462868FEF787
:1015C00042FEBC42D8DB2868F8BDB820F3E7000033
:1015D0002000002030000000090180961180FF3AB1
:1015E00081550A3601002A04000000F02B04000097
:1015F000014021800A13800A29800A0000000000AF
:1016000000000000000000000000000000000010CA
:10161000001000100010001000100000001000006A
:101620000028002800280000000000000000000042
:10163000000000240024007E00240024007E0024FA
:1016400000240000001000380054005000380054FE
:1016500000540038001000200054005800300028CA
:10166000005400140008000000100028002800109A
:101670000034004800480034000000100010001042
:101680000000000000000000000000000008001042
:101690000020002000200020001000080000002092
:1016A00000100008000800080008001000200000DA
:1016B00000100038001000280000000000000000AA
:1016C00000000000000000100010007C001000105E
:1016D000000000000000000000000000000000000A
:1016E0000010001000200000000000000000003882
:1016F00000000000000000000000000000000000EA
:1017000000000000000000100000000800080010A9
:1017100000100010001000200020000000380044DD
:10172000004400540044004400440038000000100D
:1017300000300050001000100010001000100000D9
:101740000038004400440004000800100020007C21
:1017500000000038004400040018000400040044A5
:101760000038000000080018002800280048007C0D
:10177000000800080000007C0040004000780004E1
:1017800000040044003800000038004400400078A5
:1017900000440044004400380000007C00040008BD
:1017A000001000100020002000200000003800443D
:1017B0000044003800440044004400380000003871
:1017C000004400440044003C000400440038000091
:1017D00000000000001000000000000000000010E9
:1017E00000000000000000100000000000000010D9
:1017F0000010002000000000000C0030004000300D
:10180000000C00000000000000000000007C000050
:10181000007C0000000000000000000000600018D4
:1018200000040018006000000000003800440004BC
:1018300000080010001000000010000000380044F4
:10184000004C0054005C00400040003800000010D4
:101850000028002800280028007C004400440000E4
:1018600000780044004400780044004400440078BC
:1018700000000038004400400040004000400044A8
:101880000038000000700048004400440044004458
:10189000004800700000007C00400040007C0040D8
:1018A00000400040007C0000007C004000400078C8
:1018B000004000400040004000000038004400406C
:1018C0000040005C00440044003800000044004434
:1018D0000044007C00440044004400440000003800
:1018E0000010001000100010001000100038000060
:1018F0000004000400040004000400040044003854
:1019000000000044004800500060005000480048BB
:101910000044000000400040004000400040004003
:101920000040007C00000044006C006C0054004447
:10193000004400440044000000440064006400547B
:101940000054004C004C00440000003800440044A7
:101950000044004400440044003800000078004483
:10196000004400440078004000400040000000387F
:101970000044004400440044004400540038000483
:1019800000780044004400440078004800480044C7
:10199000000000380044004000300008000400440B
:1019A00000380000007C0010001000100010001033
:1019B00000100010000000440044004400440044B3
:1019C0000044004400380000004400440044002863
:1019D00000280028001000100000004400440054BB
:1019E00000540054006C0028002800000044002827
:1019F00000280010001000280028004400000044C7
:101A00000044002800280010001000100010000002
:101A1000007C000400080010001000200040007C42
:101A2000000000180010001000100010001000103E
:101A3000001800000020002000100010001000100E
:101A40000008000800000030001000100010001016
:101A50000010001000300000001000280028004492
:101A60000000000000000000000000000000000076
:101A7000000000000000000000FE00000020001038
:101A80000000000000000000000000000000000056
:101A9000000000380044003C0044004C00340000CA
:101AA00000400040005800640044004400640058B6
:101AB00000000000000000380044004000400044E6
:101AC00000380000000400040034004C00440044CE
:101AD000004C003400000000000000380044007C8E
:101AE0000040004400380000000C0010007C001092
:101AF0000010001000100010000000000000003472
:101B0000004C0044004C00340004007800400040C9
:101B100000580064004400440044004400000010E9
:101B200000000070001000100010001000100000F5
:101B300000100000007000100010001000100010D5
:101B400000E00040004000480050006000500048A5
:101B50000044000000700010001000100010001081
:101B60000010001000000000000000780054005435
:101B700000540054005400000000000000580064AD
:101B8000004400440044004400000000000000380D
:101B900000440044004400440038000000000000FD
:101BA00000580064004400640058004000400000F9
:101BB00000000034004C0044004C003400040004D9
:101BC0000000000000580064004000400040004059
:101BD000000000000000003800440030000800440D
:101BE00000380000002000200078002000200020A5
:101BF00000200018000000000000004400440044E1
:101C00000044004C00340000000000000044004488
:101C100000280028002800100000000000000054E8
:101C200000540054006C0028002800000000000050
:101C300000440028001000100028004400000000AC
:101C4000000000440044002800280010001000603C
:101C500000000000007C0008001000200040007C14
:101C600000000018001000100020002000100010DC
:101C700000180000001000100010001000100010EC
:101C800000100010000000300010001000080008D4
:101C900000100010003000000000000000000032C2
:101CA000004C0000000000000000000000000000E8
:101CB00000000000000000000000000000100028EC
:101CC000002800280028007C004400440000007820
:101CD00000400040007800440044004400780000C8
:101CE0000078004400440078004400440044007838
:101CF0000000007C004000400040004000400040E8
:101D000000400000001C00240024002400240024C3
:101D10000024007E0042007C00400040007800402B
:101D200000400040007C000000540054003800389F
:101D300000100038005400540000007800440004F3
:101D40000018000400040004007800000044004C67
:101D5000004C00540054006400640044000000542F
:101D6000004C004C00540054006400640044000027
:101D70000044004800500060005000480048004403
:101D80000000001C0024002400240024002400245F
:101D9000004400000044006C006C00540044004407
:101DA000004400440000004400440044007C00441F
:101DB0000044004400440000003800440044004453
:101DC00000440044004400380000007C004400440B
:101DD00000440044004400440044000000780044F3
:101DE00000440044007800400040004000000038FB
:101DF0000044004000400040004000440038000023
:101E0000007C0010001000100010001000100010E6
:101E100000000044004400280028001000100020AA
:101E200000600000001000380054005400540054BA
:101E300000380010000000440028002800100010A6
:101E400000280028004400000048004800480048DE
:101E5000004800480048007C00040044004400445E
:101E60000044003C0004000400040000004400445E
:101E700000540054005400540054007C00000044FE
:101E8000004400540054005400540054007E0002EA
:101E900000600020002000380024002400240038C6
:101EA00000000042004200420072004A004A004A1C
:101EB00000720000004000400040007800440044F0
:101EC000004400780000003800440004001C0004B6
:101ED0000004004400380000004C00520052007220
:101EE000005200520052004C0000003C00440044EC
:101EF0000044003C002400240044000000000000D6
:101F000000380044003C0044004C00340000000451
:101F100000380040005800640044004400380000CD
:101F20000000000000700048007000480048007089
:101F30000000000000000078004000400040004029
:101F400000400000000000000018002800280028C1
:101F50000028007C00440000000000380044007CA1
:101F6000004000440038000000000000005400540D
:101F70000038001000380054000000000000007815
:101F80000048001000080008007000000000000079
:101F90000048004800580068004800480000003031
:101FA0000000004800480058006800480048000051
:101FB000000000000048005000600050004800444D
:101FC0000000000000000018002800280028002859
:101FD00000480000000000000044006C0054004471
:101FE0000044004400000000000000440044007C65
:101FF0000044004400440000000000000038004499
:102000000044004400440038000000000000007854
:10201000004400440044004400440000000000006C
:102020000058006400440064005800400040000074
:102030000000003800440040004000440038000028
:102040000000000000780054005400540054005474
:102050000000000000000044004400280028001098
:102060000010006000000000001000380054005410
:10207000003800100000000000000044002800109C
:102080000010002800440000000000000048004844
:10209000004800480048007C0004000000000044A4
:1020A0000044003C000400040004000000000000A4
:1020B00000540054005400540054007C0000000000
:1020C000000000540054005400540054007E0002EC
:1020D00000000000006000200038002400240038C8
:1020E000000000000000004200420072004A004A66
:1020F00000720000000000000020002000380024D2
:102100000024003800000000000000380044001CDB
:10211000000400440038000000000000004C0052A1
:10212000007200520052004C000000000000003815
:102130000048004800380028004800000028007CC3
:1021400000400040007800400040007C0000002873
:10215000000000380044007C0040004400380000CB
:10216000000000000000000000000000000000006F
:10217000000000000000000000000000000000005F
:10218000000000000000000C000C000C000C000C13
:10219000000C000C000C000C000C000C0000000CEB
:1021A000000C0000000000000000001B001B001BD2
:1021B000001B001B000000000000000000000000E9
:1021C0000000000000000000000000000000801976
:1021D000801980198019C07FC07F80190033C07FAB
:1021E000C07F0033003300330033000000000000E4
:1021F0000000001E003F807580650074003C001EDA
:1022000000078005806580658075003F001E000422
:10221000000400000000007000D840D8C0D880D969
:1022200000730006000C801BC036C066C046C006A6
:1022300080030000000000000000001E003F00338B
:1022400000330033001E000CC03CC0668063806118
:102250008063C03E801C0000000000000000000CF5
:10226000000C000C000C000C00000000000000003E
:10227000000000000000000000000000000000005E
:10228000800000010003000600060004000C000CA2
:10229000000C000C000C000C0004000600060003FB
:1022A00000018000002000100018000C000C000449
:1022B0000006000600060006000600060004000CEA
:1022C000000C0018001000200000000C002D003F42
:1022D000001E0033000000000000000000000000AD
:1022E00000000000000000000000000000000000EE
:1022F0000000000C000C000C000CC0FFC0FF000C24
:10230000000C000C000C00000000000000000000A9
:1023100000000000000000000000000000000000BD
:1023200000000000000000000000000C000C000491
:102330000004000800000000000000000000000091
:10234000000000000000001E001E00000000000051
:10235000000000000000000000000000000000007D
:10236000000000000000000000000000000000006D
:102370000000000C000C0000000000000000000342
:10238000000300030006000600060006000C000C17
:10239000000C000C001800180018000000000000DD
:1023A0000000001E003F0033806180618061806D0D
:1023B000806D8061806180610033003F001E0000FD
:1023C0000000000000000006000E001E003600267F
:1023D00000060006000600060006000600060006CD
:1023E00000060000000000000000001E003F807397
:1023F00080618061800100030006000C001800303D
:102400000060807F807F0000000000000000001C52
:10241000003E006300630003000E000E0003800115
:10242000800180618073003F001E000000000000FA
:1024300000000006000E000E001E001E00160036F2
:1024400000360066807F807F0006000600060000E0
:10245000000000000000007F007F0060006000605E
:10246000006E007F80638001800180618073003F87
:10247000001E0000000000000000001E003F80332E
:1024800080610060006E007F807380618061806188
:102490008033003F001E0000000000000000807F2D
:1024A000807F80010003000300060006000C000C82
:1024B000000C0008001800180018000000000000C0
:1024C0000000001E003F8063806180610021001ECB
:1024D000003F8061806180618061003F001E0000DC
:1024E000000000000000001E003F0073806180615A
:1024F00080618073803F801D800180610073003F98
:10250000001E0000000000000000000000000000AD
:102510000000000C000C00000000000000000000A3
:102520000000000C000C0000000000000000000093
:102530000000000000000000000C000C0000000083
:10254000000000000000000C000C00040004000863
:10255000000000000000000080008003000E003832
:1025600000600038000E80038000000000000000C2
:102570000000000000000000000000000000807F5C
:10258000807F00000000807F807F0000000000004E
:10259000000000000000000000000000000000003B
:1025A00000400070001C000780010007001C007044
:1025B0000040000000000000000000000000001FBC
:1025C000803FC071C060C000C00180030007000EE2
:1025D000000C000C0000000C000C000000000000CB
:1025E0000000001E003F803180718063806F806D2D
:1025F000806D806F806700600032003E001C00002C
:10260000000000000000000E000E001B001B001B5D
:10261000001B80318031803F803F8031C060C060CE
:10262000C0600000000000000000007C007E00632D
:10263000006300630063007E007E00638061806150
:102640008063007F007E0000000000000000001E8C
:10265000003F8031806100600060006000600060C9
:10266000006080618031003F001E0000000000001B
:102670000000007C007F0063806380618061806176
:1026800080618061806100630063007E007C0000E7
:10269000000000000000807F807F0060006000601C
:1026A0000060007F007F0060006000600060807F4D
:1026B000807F0000000000000000807F807F0060BD
:1026C000006000600060007F007F006000600060CC
:1026D0000060006000600000000000000000001EBC
:1026E000003F803180610060006000608063806333
:1026F000806180618031803F001E0000000000008A
:102700000000806180618061806180618061807F84
:10271000807F806180618061806180618061000074
:10272000000000000000003F003F000C000C000C07
:10273000000C000C000C000C000C000C000C003F06
:10274000003F0000000000000000800180018001C7
:1027500080018001800180018001800180618061B1
:102760008073003F001E0000000000000000C060F9
:102770008061006300660066006C0078007C006683
:102780000066006380618061C0600000000000009E
:102790000000006000600060006000600060006099
:1027A00000600060006000600060807F807F00004B
:1027B000000000000000C071C071C07BC07AC06A18
:1027C000C06AC06EC064C060C060C060C060C060ED
:1027D000C0600000000000000000807180718079FE
:1027E00080798079806D806D806D8065806780677D
:1027F0008067806380630000000000000000001E0E
:10280000003F003380618061806180618061806110
:10281000806180610033003F001E00000000000066
:102820000000007E007F8063806180618061806342
:10283000007F007E006000600060006000600000BB
:10284000000000000000001E003F00338061806136
:102850008061806180618061806580670033803F36
:10286000401E0000000000000000007E007F80632A
:10287000806180618063007F007E0066006300638A
:1028800080618061C0600000000000000000000E58
:10289000001F8031803100300038001E00078003A7
:1028A000806180618031003F001E00000000000058
:1028B0000000C0FFC0FF000C000C000C000C000C5E
:1028C000000C000C000C000C000C000C000C0000B4
:1028D0000000000000008061806180618061806193
:1028E0008061806180618061806180618073003F70
:1028F000001E0000000000000000C060C060C0605A
:10290000803180318031001B001B001B001B000E3A
:10291000000E000E00040000000000000000C0C017
:10292000C0C0C0C0C0C0C0C0C0CC804C804C805EA5
:10293000805280528073806180610000000000003E
:102940000000C0C0806080610033003B001E000CAE
:10295000000C001E001F003B80718061C0C00000A1
:10296000000000000000C0C08061806100330033BF
:10297000001E001E000C000C000C000C000C000CD3
:10298000000C0000000000000000803F803F80013C
:10299000000300030006000C000C001800180030B3
:1029A0000060807F807F000000000000000F000FAB
:1029B000000C000C000C000C000C000C000C000CB7
:1029C000000C000C000C000C000C000C000F000FA1
:1029D0000000001800180018000C000C000C000C7F
:1029E00000060006000600060003000300030000C6
:1029F00000000000001E001E000600060006000683
:102A00000006000600060006000600060006000696
:102A100000060006001E001E0000000C000C001E38
:102A2000001200330033806180610000000000006C
:102A30000000000000000000000000000000000096
:102A40000000000000000000000000000000000086
:102A5000000000000000000000000000E0FF000097
:102A6000000000380018000C00000000000000000A
:102A70000000000000000000000000000000000056
:102A80000000000000000000000000000000001F27
:102A9000803F80618001801F803F80618063807FF4
:102AA000C03800000000000000000060006000600E
:102AB0000060006E007F8073806180618061806152
:102AC0008073007F006E0000000000000000000026
:102AD000000000000000001E003F80738061006065
:102AE000006080618073003F001E00000000000055
:102AF00000008001800180018001801D803F807383
:102B000080618061806180618073803F801D0000F2
:102B10000000000000000000000000000000001E97
:102B2000003F00738061807F807F00608071003F84
:102B3000001E0000000000000000C007C00F000CD5
:102B4000000C807F807F000C000C000C000C000C3F
:102B5000000C000C000C0000000000000000000051
:102B600000000000801D803F807380618061806173
:102B700080618073803F801D80018063007F003E04
:102B800000000060006000600060006F807F807166
:102B9000806180618061806180618061806100000E
:102BA0000000000000000006000600000000003EDB
:102BB000003E0006000600060006000600060006AD
:102BC00000060000000000000006000600000000F3
:102BD000003E003E00060006000600060006000655
:102BE0000006000600060046007E003C0000006073
:102BF000006000600060806100630066006C007C23
:102C00000076006300638061C06000000000000087
:102C10000000003E003E000600060006000600061A
:102C2000000600060006000600060006000600007A
:102C3000000000000000000000000000000080DD37
:102C4000C0FFC0CEC0CCC0CCC0CCC0CCC0CCC0CCEF
:102C5000C0CC0000000000000000000000000000E8
:102C60000000006F807F8071806180618061806181
:102C700080618061806100000000000000000000B1
:102C8000000000000000001E003F80738061806132
:102C9000806180618073003F001E00000000000022
:102CA0000000000000000000006E007F8073806163
:102CB0008061806180618073007F006E00600060D1
:102CC000006000600000000000000000801D803FE8
:102CD000807380618061806180618073803F801D2E
:102CE00080018001800180010000000000000000E0
:102CF00000000067803F00390030003000300030B5
:102D00000030003000300000000000000000000033
:102D1000000000000000001E803F80610060007F16
:102D2000803F80018061007F001E000000000000E5
:102D300000000000000800180018007F007F001845
:102D400000180018001800180018801F800F0000DD
:102D50000000000000000000000000000000806192
:102D60008061806180618061806180618063807F3B
:102D7000803D000000000000000000000000000096
:102D80000000C060803180318031001B001B001BBF
:102D9000000E000E00060000000000000000000011
:102DA00000000000000080DD80DD80DD0055005562
:102DB000005500770077002200220000000000008C
:102DC00000000000000000000000806100330033BC
:102DD000001E000C000C001E003300338061000058
:102DE0000000000000000000000000008061806121
:102DF000803100330033001B001B001B000E000E4F
:102E0000000E001C007C00700000000000000000AC
:102E10000000C07FC07F800100030006000C001886
:102E20000030C07FC07F00000000000080038007EA
:102E300000060006000600060006000E001C001C2E
:102E4000000E00060006000600060006800780034C
:102E50000006000600060006000600060006000642
:102E60000006000600060006000600060006000632
:102E7000000600060038003C000C000C000C000CA2
:102E8000000C000E00070007000E000C000C000CE8
:102E9000000C000C003C00380000000000000000A6
:102EA0000000000000008038807F00470000000024
:102EB0000000000000000000000000000000000012
:102EC0000000000000000000000000000000000002
:102ED00000000000000000000000000000000000F2
:102EE00000000008001C001C00360036003600639D
:102EF0000063007F80FF80C180C180C180C100006D
:102F000000000000000000FF00FF00C000C000C083
:102F100000FE00FF80C380C180C180C180C300FF6C
:102F200000FE000000000000000000FE00FF00C3E3
:102F300000C300C300FE00FF80C180C180C180C10A
:102F400080C180FF00FF000000000000000080FF43
:102F500080FF00C000C000C000C000C000C000C0B2
:102F600000C000C000C000C000C0000000000000A1
:102F70000000000F001F001B001B001B003B003364
:102F8000003300330063006380FF80FF80C10000D6
:102F900000000000000080FF80FF00C000C000C0F3
:102FA00000FF00FF00C000C000C000C000C080FFE4
:102FB00080FF0000000000000000408CC0CCC0CCAE
:102FC000804C806D807F003F000C001E003F806DB4
:102FD000806DC0CC408C0000000000000000007E2E
:102FE00000FF80C3808180018003000F000F8003F9
:102FF0008001808180C300FF007E0000000000008F
:10300000000080C180C180C380C780C780CD80CDD3
:1030100080D980D980F180E180E180C180C1000049
:1030200000000000001C80C180C180C380C780C731
:1030300080CD80CD80D980D980F180E180E180C1D0
:1030400080C1000000000000000080C180C300C7F4
:1030500000CE00DC00F800F000F000F800DC00CE4C
:1030600000C780C380C10000000000000000801F76
:10307000803F80718061806180618061806180615A
:1030800080618061806180E180C1000000000000FB
:10309000000080C180C180E380E380F780F780DD9D
:1030A00080DD80C980C980C180C180C180C100002D
:1030B00000000000000080C180C180C180C180C1CB
:1030C00080FF80FF80C180C180C180C180C180C17C
:1030D00080C10000000000000000003E007F80E38F
:1030E00080C180C180C180C180C180C180C180C1D8
:1030F00080E3007F003E000000000000000080FF31
:1031000080FF80C180C180C180C180C180C180C179
:1031100080C180C180C180C180C10000000000006A
:10312000000000FE00FF80C380C180C180C300FF9B
:1031300000FE00C000C000C000C000C000C0000011
:10314000000000000000003E007F80E380C100C05E
:1031500000C000C000C000C000C080C180E3007F8C
:10316000003E000000000000000000FF00FF00180B
:10317000001800180018001800180018001800188F
:10318000001800180018000000000000000080C1B6
:1031900080C180C180E3806300730037003E001E61
:1031A000000C000C001C0078007000000000000003
:1031B0000000000C000C003F807F806DC0CCC0CCB4
:1031C000C0CCC0CC806D807F003F000C000C0000A4
:1031D00000000000000080C180C100630063003671
:1031E0000036001C001C003600360063006380C1FE
:1031F00080C1000000000000000080C180C180C1CB
:1032000080C180C180C180C180C180C180C180C1B6
:1032100080C1C0FFC07FC00000000000000080C16E
:1032200080C180C180C180C180C180C180E1807FB8
:10323000803F8001800180018001000000000000CB
:103240000000C0C0C0CCC0CCC0CCC0CCC0CCC0CCB6
:10325000C0CCC0CCC0CCC0CCC0CCC0FFC0FF000034
:10326000000000000000C0C0C0CCC0CCC0CCC0CCAE
:10327000C0CCC0CCC0CCC0CCC0CCC0CCC0CCC0FFBB
:10328000C0FFC00000000000000000F000F00030AF
:1032900000300030003E003F80338031803180318B
:1032A0008033003F003E0000000000000000C0C06E
:1032B000C0C0C0C0C0C0C0C0C0F8C0FCC0CEC0C686
:1032C000C0C6C0C6C0CEC0FCC0F8000000000000F0
:1032D000000000C000C000C000C000C000FC00FE34
:1032E00000C700C300C300C300C700FE00FC00000D
:1032F000000000000000003E007F80E380C18001EC
:10330000801F801F8001800180C180C180E3007F19
:10331000003E000000000000000000C780CFC0DDBC
:10332000C0D8C0D8C0F8C0F8C0D8C0D8C0D8C0D89D
:10333000C0DD80CF00C70000000000000000803F1B
:10334000807F80E180C180C180E1807F803F80718B
:10335000806180E180C180C180C100000000000068
:1033600000000000000000000000003E00FF00C35D
:103370000003003F00FB00C300C780FF807900000E
:103380000000000000008000801F003E0060005C24
:1033900000BF00E380C180C180C180C10063007FA5
:1033A000001C000000000000000000000000000001
:1033B000000000FF80FF80C100FF00FE00C380C14D
:1033C00080C180FF00FF000000000000000000003E
:1033D00000000000000000FF00FF00C000C000C0AF
:1033E00000C000C000C000C000C00000000000001D
:1033F00000000000000000000000003F003F00331C
:103400000033003300630063004380FF80FF80C10E
:103410000000000000000000000000000000003E6E
:10342000007F80E380C180FF80FF00C080E1007FDB
:10343000003E00000000000000000000000000004E
:103440000000408CC0CC806D002D001E003F002D80
:10345000806DC0CC408C0000000000000000000027
:10346000000000000000007F80FF80C1009F001F5F
:103470008001808180C300FF007E0000000000000A
:103480000000000000000000000080C180C380C375
:1034900080C780CD80D980F180E180E180C10000CB
:1034A00000000000000000000022001C000080C19D
:1034B00080C380C380C780CD80D980F180E180E166
:1034C00080C10000000000000000000000000000BB
:1034D000000000C300C600CC00D800F000F800CC0B
:1034E00000C400C600C3000000000000000000008F
:1034F000000000000000801F803F807180618061BB
:1035000080618061806180E180C100000000000076
:103510000000000000000000000080C180C180E3C6
:1035200080F780FF80DD80C980C180C180C100003C
:10353000000000000000000000000000000080C14A
:1035400080C180C180FF80FF80C180C180C180C1F7
:1035500080C100000000000000000000000000002A
:103560000000003E007F80E380C180C180C180C137
:1035700080E3007F003E000000000000000000002B
:1035800000000000000000FF80FF80C180C180C1FA
:1035900080C180C180C180C180C1000000000000E6
:1035A0000000000000000000000000DE00FF80E3DB
:1035B00080C180C180E300FF00DE00C000C00000C9
:1035C0000000000000000000000000000000003EBD
:1035D000007F80E380C100C000C080C180E3007F25
:1035E000003E00000000000000000000000000009D
:1035F000000000FF00FF0018001800180018001855
:103600000018001800180000000000000000000072
:1036100000000000000080C180C10063003300365C
:10362000001C001C0038003000700060000000002A
:1036300000000000000000000000000C000C807F73
:10364000C0FFC0CCC0CCC0FF807F000C000C0000CD
:10365000000000000000000000000000000080806A
:1036600080C100630036001C001C0036006380C16E
:10367000808000000000000000000000000000004A
:10368000000000C300C300C300C300C300C300C3E5
:1036900000C300FF807F80010000000000000000E8
:1036A00000000000000080C180C180C180C180E1B5
:1036B000807F803F800180018001000000000000C9
:1036C00000000000000000000000C0CCC0CCC0CC56
:1036D000C0CCC0CCC0CCC0CCC0CCC0FFC0FF0000B0
:1036E0000000000000000000000000000000C0CC4E
:1036F000C0CCC0CCC0CCC0CCC0CCC0CCC0CCC0FF37
:10370000C0FFC0000000000000000000000000003A
:10371000000000F000F00030003E003F80338031B8
:103720008033003F003E0000000000000000000069
:10373000000000000000C0C0C0C0C0C0C0F8C0FC95
:10374000C0CEC0C6C0CEC0FCC0F800000000000063
:103750000000000000000000000000C000C000C029
:1037600000FE00FF80C380C180C300FF00FE000098
:103770000000000000000000000000000000003E0B
:10378000007F80E180CF800F800180C180E3007FD7
:10379000003E0000000000000000000000000000EB
:1037A000000000C780CFC0DDC0D8C0F8C0F8C0D8C6
:1037B000C0DD80CF00C70000000000000000000056
:1037C000000000000000807F80FF80C180C1807FFA
:1037D000803F8061806180C180C1000000000000E6
:1037E000002280FF80FF00C000C000C000FF00FF7B
:1037F00000C000C000C000C000C080FF80FF00000B
:103800000000000000000000000000140000003E66
:10381000007F80E380C180FF80FF00C080E1007FE7
:10382000003E00000000000000000000000000005A
:103830000000000000000000000000000000000088
:103840000000000000000000000000000000000078
:10385000000000000000000000000000E003E003A2
:10386000E003E003E003E003E003E003C003C00380
:10387000C001C001C001C001C00100000000000083
:10388000E003E003E003000000000000000000008F
:103890003C1E3C1E3C1E3C1E3C1E3C1E3C1E0000B2
:1038A0000000000000000000000000000000000018
:1038B0000000000000000000000000000000000008
:1038C00000000000CE01CE03DE039E039C039C0794
:1038D000FF3FFF7F3807380F780F780F780EFFFF14
:1038E000FFFFF01EF01CE01CE03CE03DE039000072
:1038F0000000000000000000FC03FE0FEE1FE01EB1
:10390000E01EE01EE01EE01FE00FE007F003FC01F8
:10391000FE01FE01FE01FE01FE01FE01FE3DFC3F37
:10392000F00FE001E001000000000000033E07F797
:103930008FE78EE79EE3BCE3B8E7F8E7F0F7E03FF8
:10394000C001FF03FF07F307F30FF31EF33CF33847
:10395000F3787FF03FE0000000000000000000006E
:10396000E007F80F780F781F781F781F780FF00F97
:10397000E00F801FC37FC3FBE7F3F7F1F7F0FFF021
:103980007FF03EF87F7CFF3FEF1F0000000000004B
:1039900000000000E003E003E003E003E003C003F5
:1039A000C001000000000000000000000000000056
:1039B0000000000000000000000000000000000007
:1039C00000000000000000003F007C00F001E0016A
:1039D000C003C00780078007800F000F000F000F93
:1039E000000F000F000F800F80078007C007C00383
:1039F000E001F0017C003F000F000000007E001F8E
:103A0000C007C003E001F001F000F000F80078000A
:103A100078007800780078007800F800F000F00076
:103A2000F001E001C003C007001F007E0078000025
:103A3000E003C003C001CE39FF3F7F3F2003700386
:103A4000F807780F3C1F3806000000000000000057
:103A50000000000000000000000000000000000066
:103A60000000000000000000000000000000000056
:103A7000C001C001C001C001C001C001C001FFFF01
:103A8000FFFFC001C001C001C001C001C0010000B2
:103A90000000000000000000000000000000000026
:103AA0000000000000000000000000000000000016
:103AB00000000000000000000000E003E003E0035D
:103AC000E003E001E001E001C0018003000000002C
:103AD00000000000000000000000000000000000E6
:103AE0000000FE3FFE3F000000000000000000005C
:103AF00000000000000000000000000000000000C6
:103B000000000000000000000000000000000000B5
:103B100000000000000000000000000000000000A5
:103B20000000E003E003E003E00300000000000009
:103B3000000000000F000F001E001E003C003C00B3
:103B400078007800F000F000E001E001C003C0035D
:103B500080078007000F000F001E001E003C003C85
:103B60000078007800F00000F007F80F7C1F3E3E60
:103B70001E3C1F7C1F7C0F780F780F780F780F7812
:103B80000F780F781F7C1F7C1E3C3E3E7C1FF80F79
:103B9000F00700000000000000000000F000F00747
:103BA000F03FF03FF001F001F001F001F001F00111
:103BB000F001F001F001F001F001F001F001F0017D
:103BC000F001FF3FFF3F0000000000000000000088
:103BD000E00FF83F7C3C3C003E003E003E003C00D5
:103BE0003C007C00F800F001E003C0078007000FF4
:103BF000001E003E003CFE3FFE3F000000000000B3
:103C000000000000F00FF81F7C1C3E003E003E004C
:103C10003C003C00F800F00FF80F7C003E001E0056
:103C20001E001E001E003E007C1CF81FE01F00004E
:103C300000000000000000007800F800F800F80123
:103C4000F803F807F807780F781E781E783C787824
:103C50007878FFFFFFFF7800780078007800780020
:103C6000780000000000000000000000FC1FFC1FA6
:103C7000FC1F001E001E001E001E001EE01FF81F7D
:103C8000FC007C003E003E001E003E003E003C006A
:103C90007C1CF81FE01F0000000000000000000076
:103CA000FC01FE078E0F001F001E003E003C003C82
:103CB000F83DFC3F3E7F1F7E0F3C0F3C0F3C0F3C0E
:103CC0000F3E1F1E3E1FFC0FF0030000000000000F
:103CD00000000000FF3FFF3FFF3F0F001E001E00DF
:103CE0003C0038007800F000F000E001E001C00383
:103CF000C0038007800F800F000F001F001F00000F
:103D00000000000000000000F807FC0F3E1F1E1E10
:103D10001E3E1E3E1E1E3C1FF80FF007F80FFC1E35
:103D20003E3E1F3C1F7C0F7C0F7C1F3C3E3FFC1F18
:103D3000F00700000000000000000000F007F80F8E
:103D40007C1E3E3C1E3C1F7C1F7C1F7C1F7C1F3C3E
:103D50003F3EFF1FEF071F001E001E003E003C00FD
:103D6000F838F03FE01F00000000000000000000F5
:103D7000000000000000000000000000E003E0037D
:103D8000E003E0030000000000000000000000006D
:103D90000000E003E003E003E00300000000000097
:103DA0000000000000000000000000000000000013
:103DB000E003E003E003E003000000000000000077
:103DC000000000000000E003E003E003E003E00186
:103DD000E001E001C00380030000000000000000DB
:103DE0000000000003000F003F00FC00F003C00FC4
:103DF000003F00FE003FC00FF003FC003F000F003B
:103E000003000000000000000000000000000000AF
:103E100000000000000000000000000000000000A2
:103E2000FFFFFFFF000000000000FFFFFFFF00009A
:103E30000000000000000000000000000000000082
:103E400000000000000000000000000000E000F89A
:103E5000007E801FE007F8017E001F007E00F80151
:103E6000E007801F007E00F800E000000000000076
:103E700000000000F01FFC3F3E381F381F381E00B6
:103E80001E003C007800F000E001C003C003C00742
:103E9000C007000000000000C007C007C007000006
:103EA0000000000000000000F803FE0F1E1F0F3E80
:103EB0007F3CFF78EF79C773C7F38FF38FF38FF3EE
:103EC0009FF39FF3FF73FF7BF779003C1C1FFC0FF0
:103ED000F8030000000000000000000000000000E7
:103EE0000000E003E003F007F007F007780F780F19
:103EF0007C0E3C1E3C1E3E3CFE3FFF3F1F780F7871
:103F00000FF007F007F000000000000000000000C4
:103F1000000000000000F83FFC3F3E3C1E3C1E3C01
:103F20001E3C3E3C7C3CF03FF83F7E3C1F3C1F3C2F
:103F30000F3C0F3C1F3CFE3FF83F0000000000001C
:103F400000000000000000000000FF01FF07871FC5
:103F5000003E003C007C0078007800780078007813
:103F6000007C007C003E003F831FFF07FF01000034
:103F70000000000000000000000000000000F07FD2
:103F8000FC7F7E781F781F780F780F780F780F7876
:103F90000F780F780F780F781F781E787E78F87F6B
:103FA000E07F0000000000000000000000000000B2
:103FB0000000FF3FFF3F003E003E003E003E003E4F
:103FC000003EFE3FFE3F003E003E003E003E003E03
:103FD000003EFF3FFF3F0000000000000000000027
:103FE000000000000000FF1FFF1F001E001E001E3B
:103FF000001E001E001EFF1FFF1F001E001E001ED1
:10400000001E001E001E001E001E0000000000001A
:1040100000000000000000000000FE03FF0F871FEB
:10402000003E007C007C007800F800F87FF87FF804
:104030000F780F7C0F7C0F3E8F1FFF0FFE030000D9
:1040400000000000000000000000000000001F7CD5
:104050001F7C1F7C1F7C1F7C1F7C1F7C1F7CFF7FA5
:10406000FF7F1F7C1F7C1F7C1F7C1F7C1F7C1F7C95
:104070001F7C0000000000000000000000000000A5
:104080000000FF3FFF3FE003E003E003E003E00345
:10409000E003E003E003E003E003E003E003E00308
:1040A000E003FF3FFF3F00000000000000000000B1
:1040B000000000000000FC1FFC1F7C007C007C0056
:1040C0007C007C007C007C007C007C007C007C0010
:1040D00078007800F838F03FC03F00000000000092
:1040E000000000000000000000001F3C1E3C3C3CA3
:1040F000783CF03CE03DE03FC03F803FC03FE03FC8
:10410000F03DF03C783C7C3C3E3C1F3C0F3C0000CA
:104110000000000000000000000000000000003E61
:10412000003E003E003E003E003E003E003E003E9F
:10413000003E003E003E003E003E003E003EFF3F8F
:10414000FF3F000000000000000000000000000031
:1041500000001FF81FFC1FFC3FFE3FFE3FFE7FFFDD
:1041600077FF77FFF7F7E7F7E7F3E7F3C7F307F032
:1041700007F007F007F0000000000000000000005A
:104180000000000000000F7C0F7C0F7E0F7F0F7F70
:104190008F7F8F7FCF7FEF7BEF79FF79FF78FF787D
:1041A0007F783F783F781F781F780000000000007C
:1041B00000000000000000000000F007FC1F3E3E71
:1041C0001F7C0F780F780FF80FF80FF80FF80FF823
:1041D0000FF80F780F781F7C3E3EFC1FF0070000A1
:1041E0000000000000000000000000000000FC3F94
:1041F000FF3F1F3E0F3E0F3E0F3E0F3E1F3E3F3E16
:10420000FC3FF03F003E003E003E003E003E003ED0
:10421000003E000000000000000000000000000060
:104220000000F007FC1F3E3E1F7C0F780F780FF850
:104230000FF80FF80FF80FF80FF80F780F781F7CB2
:104240003E3EFC1FF8077C003F000F00030000000B
:10425000000000000000F03FFC3F7E3C3E3C1E3C66
:104260001E3C3E3C3C3CFC3CF03FE03FF03DF83C1B
:104270007C3C3E3C1E3C1F3C0F3C0000000000000C
:1042800000000000000000000000FC07FE1F0E3EC2
:10429000003C003C003C003EC01FF80FFE037F00C6
:1042A0001F000F000F001F203E3CFC3FF01F0000CE
:1042B0000000000000000000000000000000FFFF00
:1042C000FFFFE003E003E003E003E003E003E003BB
:1042D000E003E003E003E003E003E003E003E003C6
:1042E000E0030000000000000000000000000000EB
:1042F00000000F7C0F7C0F7C0F7C0F7C0F7C0F7CF1
:104300000F7C0F7C0F7C0F7C0F7C0F7C1E3C1E3CB7
:104310003E3EFC1FF007000000000000000000000F
:1043200000000000000007F007F007F80F780F7C8E
:104330001E3C1E3C1E3E3C1E3C1F781F780FF80F93
:10434000F007F007F007E003E003000000000000C2
:104350000000000000000000000003E003F003F094
:1043600007F0E7F3E7F3E7F3E773F77BF77FFF7F08
:104370007F7F7F7F7E7F7E3F3E3E3E3E3E3E000013
:10438000000000000000000000000000000007F82E
:104390000F7C1E3E3E3E3C1FF80FF007E007E00397
:1043A000E003F007F80F7C0F7C1E3E3C1F780F786F
:1043B0000FF00000000000000000000000000000FE
:1043C000000007F807780F7C1E3C1E3E3C1F780F4C
:1043D000F80FF007E003E003E003E003E003E0038D
:1043E000E003E003E0030000000000000000000024
:1043F000000000000000FF7FFF7F0F001F003E0055
:104400007C00F800F000E001E003C007800F000F1F
:10441000001E003E007CFF7FFF7F000000000000C8
:1044200000000000FF0780078007800780078007E3
:104430008007800780078007800780078007800744
:104440008007800780078007800780078007800734
:104450008007FF07FF07000000780078003C003C61
:10446000001E001E000F000F80078007C003C0035E
:10447000E001E001F000F000780078003C003C0032
:104480001E001E000F000F0007000000F07FF0006C
:10449000F000F000F000F000F000F000F000F0009C
:1044A000F000F000F000F000F000F000F000F0008C
:1044B000F000F000F000F000F000F07FF07F00006E
:1044C000C000C001C001E003E003F007F007780777
:1044D000780F380F3C1E3C1E1E3C1E3C0F380F78D8
:1044E000077800000000000000000000000000004D
:1044F00000000000000000000000000000000000BC
:1045000000000000000000000000000000000000AB
:104510000000000000000000000000000000FFFF9D
:10452000FFFF000000000000F0000000000000009D
:10453000000000000000000000000000000000007B
:10454000000000000000000000000000000000006B
:10455000000000000000000000000000000000005B
:104560000000000000000000F80FFC3F7C3C3E0013
:104570003E003E00FE07FE1F3E3E3E7C3E783E7CF7
:104580007E7CFF3FCF1F0000000000000000000005
:10459000003C003C003C003C003C003CF83DFE3F41
:1045A0003E3F1F3E0F3C0F3C0F3C0F3C0F3C0F3C6F
:1045B0001F3C1E3C3E3FFC3FF03B00000000000063
:1045C00000000000000000000000000000000000EB
:1045D000FE03FF0F871F003E003E003C007C007C76
:1045E000007C003C003E003E871FFF0FFE030000E2
:1045F00000000000000000001F001F001F001F003F
:104600001F001F00FF07FF1F3F3E1F3C1F7C1F7C3A
:104610001F7C1F781F781F7C1F7C3F3C7F3EFF1F45
:10462000DF0F00000000000000000000000000009C
:104630000000000000000000F803FC0F3E1F1E3EBB
:104640001F3C1F7CFF7FFF7F007C007C003C003E06
:10465000071FFF0FFE030000000000000000000025
:10466000FF01E103C003C007C007C007FF7FFF7F52
:10467000C007C007C007C007C007C007C007C00702
:10468000C007C007C007C007C00700000000000047
:10469000000000000000000000000000000000001A
:1046A000EF07FF1F7F3E1F3C1F7C1F7C1F781F787A
:1046B0001F781F7C1F7C3F3C7F3EFF1FDF0F1E00CB
:1046C0001E001E007C38F83F003C003C003C003CD3
:1046D000003C003CFC3DFE3F9E3F1F3F1F3E1F3CF9
:1046E0001F3C1F3C1F3C1F3C1F3C1F3C1F3C1F3CF2
:1046F0001F3C00000000000000000000F001F0017D
:104700000000000000000000E07FE07FE001E00129
:10471000E001E001E001E001E001E001E001E00191
:10472000E001E001E00100000000000000000000E6
:10473000F800F8000000000000000000F83FF83F1B
:10474000F800F800F800F800F800F800F800F800A9
:10475000F800F800F800F800F800F800F800F000A1
:10476000F071E07F003C003C003C003C003C003C21
:104770001F3C3E3C7C3CF83CF03DE03DC03FC03F30
:10478000E03FF03DF83C7C3C3E3C1F3C1F3C0000C1
:104790000000000000000000F07FF001F001F001D7
:1047A000F001F001F001F001F001F001F001F00181
:1047B000F001F001F001F001F001F001F001F00171
:1047C000F0010000000000000000000000000000F8
:1047D00000000000000000009EF7FFFFFFFFFFFF4A
:1047E000E7FBE7F9C7F1C7F1C7F1C7F1C7F1C7F1B7
:1047F000C7F1C7F1C7F10000000000000000000091
:10480000000000000000000000000000FC3DFE3F32
:104810009E3F1F3F1F3E1F3C1F3C1F3C1F3C1F3C39
:104820001F3C1F3C1F3C1F3C1F3C000000000000C1
:104830000000000000000000000000000000000078
:10484000F007FC1F3E3E1F3C1F7C0F780F780F784F
:104850000F780F781F7C1F3C3E3EFC1FF0070000C6
:104860000000000000000000000000000000000048
:1048700000000000F83DFE3F3E3F1F3E0F3C0F3C56
:104880000F3C0F3C0F3C0F3C1F3C1E3E3E3FFC3F8D
:10489000F83F003C003C003C003C003C00000000B5
:1048A0000000000000000000EE07FE1F7E3E1E3CE0
:1048B0001E7C1E781E781E781E781E781E7C3E7C1C
:1048C0007E3EFE1FDE0F1E001E001E001E001E008C
:1048D0000000000000000000000000007F1FFF1F1C
:1048E000E71FC71F871F001F001F001F001F001F9B
:1048F000001F001F001F001F001F0000000000001D
:1049000000000000000000000000000000000000A7
:10491000FC07FE1F0E1E003E003E003FE01FFC078E
:10492000FE003E001E001E003E3CFC3FF01F00004B
:1049300000000000000000000000000000008007F0
:1049400080078007FF7FFF7F800780078007800741
:10495000800780078007800780078007C007FF0364
:10496000FF01000000000000000000000000000047
:1049700000000000000000001E3C1E3C1E3C1E3CCF
:104980001E3C1E3C1E3C1E3C1E3C1E3C3E3C7E3CD7
:10499000FE3EFE1FDE0F00000000000000000000D1
:1049A00000000000000000000000000007F00F7889
:1049B0000F781E3C1E3C1E3E3C1E3C1E780F780F9E
:1049C000F00FF007F007E003E00300000000000034
:1049D00000000000000000000000000000000000D7
:1049E00003F0E3F1E3F3E7F3F7F3F7F3F77F777F10
:1049F0007F7F7F7F7F7F3E3E3E3E3E3E3E3E0000CD
:104A000000000000000000000000000000000000A6
:104A1000000000000F7C1E3E3C3E3C1FF80FF007DC
:104A2000F007E003F007F807F80F7C1E3E3E1F3C3E
:104A30001F780000000000000000000000000000DF
:104A4000000000000000000007F80F780F7C1E3CFB
:104A50001E3C3C1E3C1E3C1F780FF80FF007F00771
:104A6000E003E003C003C003C0038007800F007FA2
:104A7000000000000000000000000000FF3FFF3FBA
:104A80001F003E007C00F800F001E003C007800F2B
:104A9000001F001E003CFF7FFF7F000000000000A1
:104AA00000000000FE01E003C003C003C003C00318
:104AB000E001E001E001C001C003803F803FC0038E
:104AC000C001E001E001E001C003C003C003C00376
:104AD000E003FE017E000000C001C001C001C00172
:104AE000C001C001C001C001C001C001C001C001BE
:104AF000C001C001C001C001C001C001C001C001AE
:104B0000C001C001C001C001C0010000C03FE003FE
:104B1000E001E001E001E001C001C003C003C00109
:104B2000E001FE00FE00E001C001C003C003C001BF
:104B3000E001E001E001E001E003C03F003F0000D0
:104B40000000000000000000000000000000000065
:104B5000000000000000073FC77FE773FFF17EF011
:104B60000000000000000000000000000000000045
:104B70000000000000000000000000000000000035
:104B80000000000000000000000000000000000025
:104B90000000000000000000000000000000000015
:104BA000000000000000000000000000000080077E
:104BB000C00FC00FC00FE01FE01FE01DF03CF03C35
:104BC000F03C7878F87FF87FF87F3CF03CF01EE00E
:104BD0001EE00000000000000000000000000000D7
:104BE0000000F0FFF0FFF0FF00F000F000F000F038
:104BF000C0FFF0FFF0FFF8F078F078F078F0F8F010
:104C0000F0FFE0FFC0FF0000000000000000000017
:104C1000000000000000C0FFE0FFF0FFF0F1F0F046
:104C2000F0F0E0F1C0FFE0FFF0FFF8F078F078F08E
:104C300078F0F8F0F0FFE0FFC0FF00000000000097
:104C400000000000000000000000F0FFF0FFF0FF97
:104C500000F000F000F000F000F000F000F000F0D4
:104C600000F000F000F000F000F000F000F00000B4
:104C70000000000000000000000000000000FC1F19
:104C8000FC3FFC3F3C3C3C3C3C3C3C3C3C3C3C78A2
:104C90003C783C783C783C783C703C70FEFFFEFFF2
:104CA000FEFF0EE00EE0000000000000000000002B
:104CB0000000F0FFF0FFF0FF00F000F000F000F067
:104CC000E0FFE0FFE0FF00F000F000F000F000F097
:104CD000F0FFF0FFF0FF0000000000000000000007
:104CE00000000000000086C38EE38EE39C739833BF
:104CF000B83BF01FE00FE00FF01FF81FB83B9C73AC
:104D00009C738EE38EE38EE386C3000000000000F8
:104D100000000000000000000000803FE0FFF0FF06
:104D2000F8E078807800F000E03FC03FE03FF0001E
:104D3000780078007800F0C0E0FFC0FF007F00003E
:104D400000000000000000000000000000003EF035
:104D50003EF07EF07EF0FEF0FEF1FEF1DEF3DEF7D7
:104D60009EF71EFF1EFF1EFE1EFE1EFC1EF81EF8F6
:104D70001EF0000000000000000000008007800717
:104D800000003EF03EF07EF07EF0FEF0FEF1FEF11F
:104D9000DEF3DEF79EF71EFF1EFF1EFE1EFE1EFC4C
:104DA0001EF81EF81EF000000000000000000000C9
:104DB0000000000000003CF07CF0FCF0F0F1E0F1BD
:104DC000E0F3C0F7C0FF80FFC0FFC0F3E0F3F0F1F5
:104DD000F0F0F8F078F07CF03EF000000000000009
:104DE00000000000000000000000FE3FFE3FFE3F0C
:104DF0001E3C1E3C1E3C1E3C1E3C1E3C1E3C1E38E7
:104E00001E781E781E781EF01EF01EE01EC00000E8
:104E100000000000000000000000000000001EF084
:104E20001EF03EF83EF87EFC7EFC7EFCEEEEEEEEE2
:104E3000EEEFCEE7CEE78EE38EE30EE10EE00EE07E
:104E40000EE0000000000000000000000000000074
:104E500000003CF03CF03CF03CF03CF03CF03CF01E
:104E6000FCFFFCFFFCFF3CF03CF03CF03CF03CF075
:104E70003CF03CF03CF000000000000000000000AE
:104E8000000000000000C007F01FF83F7C7C3C7869
:104E90003EF81EF01EF01EF01EF01EF01EF03EF852
:104EA0003C787C7CF83FF01FC00700000000000049
:104EB00000000000000000000000FCFFFCFFFCFF01
:104EC0003CF03CF03CF03CF03CF03CF03CF03CF082
:104ED0003CF03CF03CF03CF03CF03CF03CF000009E
:104EE0000000000000000000000000000000E0FFE3
:104EF000F0FFF8FF7CF03CF03CF03CF03CF078F048
:104F0000F8FFF0FFC0FF00F000F000F000F000F04C
:104F100000F00000000000000000000000000000A1
:104F20000000E00FF83FFC7F3C7C1CF00CF000F030
:104F300000E000E000E000E000F00CF01CF03C7C41
:104F4000FC7FF83FE00F00000000000000000000C0
:104F5000000000000000FCFFFCFFFCFF8007800752
:104F60008007800780078007800780078007800709
:104F7000800780078007800780070000000000008E
:104F8000000000000000000000003CE078E078F045
:104F9000F8F0F0F0F078E079E03DE03DC01FC01F90
:104FA000801F800F800F000F00FF00FE00FC00003C
:104FB000000000000000000000000000000080036E
:104FC0008003F01FFC7FFC7F9EF38EE386C386C3C5
:104FD00086C386C38EE39EF3FC7FFC7FF01F8003B5
:104FE000800300000000000000000000000000003E
:104FF00000003EF07CF07878F83CF03CE01FE01FC9
:10500000C00FC00FC00FC00FE01FE01FF03CF83C06
:1050100078783CF03EF00000000000000000000046
:105020000000000000003CF03CF03CF03CF03CF0A4
:105030003CF03CF03CF03CF03CF03CF03CF03CF010
:105040003CF03CF0FEFFFEFFFEFF0E000E000000F5
:10505000000000000000000000003CF03CF03CF0CC
:105060003CF03CF03CF03CF03CF03CF8FCFFFC7FBA
:10507000FC1F3C003C003C003C003C003C000000AD
:1050800000000000000000000000000000008EE3AF
:105090008EE38EE38EE38EE38EE38EE38EE38EE388
:1050A0008EE38EE38EE38EE38EE38EE3FEFFFEFF60
:1050B000FEFF0000000000000000000000000000F3
:1050C00000008EE38EE38EE38EE38EE38EE38EE3C9
:1050D0008EE38EE38EE38EE38EE38EE38EE38EE348
:1050E000FEFFFEFFFEFF0E000E00000000000000AD
:1050F00000000000000000FC00FC00FC003C003C44
:10510000003C003CF03FF83FFC3F3C3C1C3C1C3C5E
:105110001C3C3C3CFC3FF83FF03F0000000000001E
:10512000000000000000000000000EE00EE00EE0B5
:105130000EE00EE00EE00EE08EFFCEFFEEFFEEE1A1
:10514000EEE0EEE0EEE0EEE1EEFFCEFF8EFF0000DF
:10515000000000000000000000000000000000F05F
:1051600000F000F000F000F000F000F0C0FFE0FF01
:10517000F0FFF8F078F078F078F0F8F0F0FFE0FF6A
:10518000C0FF000000000000000000000000000060
:105190000000007FC0FFE0FFF0C1F000F8007800E1
:1051A000F83FF83FF83F78007800F000F000F0C3D7
:1051B000E0FFC0FF007F00000000000000000000D2
:1051C000000000000000E0E0F8E3F8E3BCE71CE7C3
:1051D0000EEE0EEE0EFE0EFE0EFE0EEE0EEE0EEEBF
:1051E0001CE7BCE7F8E3F8E3E0E0000000000000A3
:1051F00000000000000000000000F81FF87FF87FAA
:1052000078F878F078F078F078F8F87FF83FF81FC1
:10521000783E783C787C78F878F078F078E0000098
:10522000000000000000000000000000000000007E
:105230000000000000000000007FC0FFE0FFE0C3AE
:10524000E001E01FE0FFE0F1E0E1E0E1E0FFE0FF8E
:10525000E07D0000000000000000000000000000F1
:105260000000E03FE07F00FC00F000E080E7C0FFCE
:10527000E0FFF0E1F0E0F0E0F0E0F0E0F0E0E0F19D
:10528000E0FFC07F001F00000000000000000000E1
:10529000000000000000000000000000000000000E
:1052A000C0FFE0FFE0FFE0F1C0F180FFE0FFF0F0C1
:1052B000F0F0F0F0F0FFE0FFC0FF000000000000A1
:1052C00000000000000000000000000000000000DE
:1052D00000000000C0FFC0FFC0FF00F000F000F0C1
:1052E00000F000F000F000F000F000F000F000002E
:1052F00000000000000000000000000000000000AE
:105300000000000000000000F80FF81FF81F781CD4
:10531000781C783C7838783878787870FCFFFCFF17
:10532000FCFF1CE000000000000000000000000086
:10533000000000000000000000000000001FC07F0F
:10534000C0FFE0F1E0E1E0FFE0FF00E000E060F03E
:10535000E0FFE07FC01F0000000000000000000030
:10536000000000000000000000000000000000003D
:1053700086C38EE39C73B83BF83FF01FE00FC00775
:10538000F01FF83FBC7B9EF38EE30000000000009E
:10539000000000000000000000000000000000000D
:1053A00000000000007FC0FFE0FFE0C1E001C03F5F
:1053B000003FC03FE001E001E0FFC0FF007F0000D0
:1053C00000000000000000000000000000000000DD
:1053D000000000000000000078F0F8F0F8F1F8F1AB
:1053E000F8F378F778F778FE78FC78FC78F878F0BE
:1053F00078F0000000000000000000000000000045
:105400000000F078E03FC01F0000000078F0F8F0E6
:10541000F8F1F8F1F8F378F778F778FE78FC78FC93
:1054200078F878F078F0000000000000000000003C
:10543000000000000000000000000000000000006C
:10544000E0F1E0F3E0F3C0F780F780FF00FF80FFBA
:1054500080F7C0F7E0F3E0F1F0F100000000000099
:10546000000000000000000000000000000000003C
:1054700000000000F83FF87FF87F78787878787837
:1054800078787878787878F078F078E078C00000EC
:10549000000000000000000000000000000000000C
:1054A00000000000000000003EF83EF87EFC7EFC9C
:1054B000FEFEFEFEDEF7DEF79EF39EF31EF11EF00B
:1054C0001EF00000000000000000000000000000CE
:1054D00000000000000000000000000078F078F0FC
:1054E00078F078F0F8FFF8FFF8FF78F078F078F0CF
:1054F00078F078F078F00000000000000000000074
:10550000000000000000000000000000000000009B
:10551000800FE03FF07FF07878F078F078F078F066
:1055200078F0F078F07FE03F800F0000000000008E
:10553000000000000000000000000000000000006B
:1055400000000000F8FFF8FFF8FF78F078F078F03E
:1055500078F078F078F078F078F078F078F0000073
:10556000000000000000000000000000000000003B
:10557000000000000000000080FFC0FFE0FFE0F13D
:10558000E0F0E0F0E0F0E0F1E0FFC0FF80FF00F0CD
:1055900000F000F00000000000000000000000002B
:1055A000000000000000000000000000801FC07F1D
:1055B000E0FFE0F060E000E000E000E060E0E0F04C
:1055C000E0FFC07F801F000000000000000000001E
:1055D00000000000000000000000000000000000CB
:1055E000F0FFF0FFF0FF000F000F000F000F000FA3
:1055F000000F000F000F000F000F00000000000060
:10560000000000000000000000000000000000009A
:105610000000000038E038F078F07078E07CE03E80
:10562000E01FC00FC00780038007807F007F00005D
:10563000000000000000000000000000000000006A
:105640000000000080038003F83FFC7FFEFF8EE334
:1056500086C386C386C38EE3FEFFFC7FF83F8003CC
:1056600080030000000000000000000000000000B7
:105670000000000000000000000000007CF0F8F8CE
:10568000F078E03DC01FC01F800FC01FC01FE03D6D
:10569000F078F8F87CF00000000000000000000046
:1056A00000000000000000000000000000000000FA
:1056B000F0F0F0F0F0F0F0F0F0F0F0F0F0F0F0F0EA
:1056C000F0F0F0F0FCFFFCFFFC7F1C001C00000071
:1056D00000000000000000000000000000000000CA
:1056E00000000000F0E0F0E0F0E0F0E0F0E0F0F0CA
:1056F000F0FFF0FFF07FF000F000F000F00000009D
:105700000000000000000000000000000000000099
:1057100000000000000000008EE38EE38EE38EE3C5
:105720008EE38EE38EE38EE38EE38EE3FEFFFEFFD9
:10573000FEFF00000000000000000000000000006C
:105740000000000000000000000000008EE38EE377
:105750008EE38EE38EE38EE38EE38EE38EE38EE3C1
:10576000FEFFFEFFFEFF0E000E0000000000000026
:105770000000000000000000000000000000000029
:1057800000FC00FC00FC003CF03FF83FFC3F3C3CD0
:105790003C3C3C3CFC3FF83FF03F00000000000078
:1057A00000000000000000000000000000000000F9
:1057B000000000000EF00EF00EF00EF08EFFCEFF97
:1057C000EEFFEEF0EEF0EEF0EEFFCEFF8EFF00000B
:1057D00000000000000000000000000000000000C9
:1057E000000000000000000000F000F000F000F0F9
:1057F000C0FFE0FFF0FFF0F0F0F0F0F0F0FFE0FFAE
:10580000C0FF0000000000000000000000000000D9
:1058100000000000000000000000000000FC00FF8D
:1058200080FF8007C003C0FFC0FFC0FFC003800728
:1058300080FF00FF00FC00000000000000000000EE
:105840000000000000000000000000000000000058
:10585000F0E3F8E7FCE71EEF0EEE06FC06FC06FCA4
:105860000EEE1EEFFCE7F8E7F0E30000000000009A
:105870000000000000000000000000000000000028
:1058800000000000F03FF07FF0FFF0F0F0F0F0FFDC
:10589000F07FF01FF03EF07CF0F8F0F8F0F0000040
:1058A000000000000000000000000000C030F0FF19
:1058B000F0FFF0FF00F000F000F000F0E0FFE0FF8C
:1058C000E0FF00F000F000F000F000F0F0FFF0FF6B
:1058D000F0FF0000000000000000000000000000D9
:1058E000000000000000001100110000001FC07F38
:1058F000C0FFE0F1E0E1E0FFE0FF00E000E060F089
:10590000E0FFE07FC01F000000000000000000007A
:10591000FFFFFFFFFFFFFFFFFFFFFFFFFFFFFFFF97
:10592000FFFFFFFFFFFFFFFFFFFFFFFFFFFFFFFF87
:10593000FFFFFFFFFFFFFFFFFFFFFFFFFFFFFFFF77
:10594000FFFFFFFFFFFFFFFFFFFFFFFFFFFFFFFF67
:10595000FFFFFFFFFFFFFFFFFFFFFFDFFFFFFFFF77
:10596000FFFFFFFFFFFFFFFFFFFFFFDFFFFFFFFF67
:10597000FFFFFFFFFFDFFFFFFFFFFFFFFFFFFFFF57
:10598000FFFFFFFFFFFFFFFFFFFFFFFFFFFFFFFF27
:10599000FFFFFFFFFFFFFFFFFFFFFFFFFFFFFFFF17
:1059A000FFFFFFFFFFFFFFFFFFFFFFFFFFFFFFFF07
:1059B000FFFFFFFFFFFFFFFFFFFFFFFFFFFFFFFFF7
:1059C000FFFFFFFFFFFFFFFFFFFFFFFFFFFFFFFFE7
:1059D000FFFFFFFFFFFFFFFFFFFFFFFFFFFFFFFFD7
:1059E000FFFFFFFFFFFFFFFFFFFFFFFFFFFFFFFFC7
:1059F000FFFFFFFFFFFFFFFFFFFFFFFFFFFFFFFFB7
:105A0000FFFFFFFFFFFFFFFFFFFFFFFFFFFFFFFFA6
:105A1000FFFFFFFFFFFFFFFFFFFFFFFFFFFFFFFF96
:105A2000FFFFFFFFFFDFFFFFFFFFFFFFFFFFFFFFA6
:105A3000FFFFFFFFFFFFFFFFFFFFFFFFFFFFFFFF76
:105A4000FFFFFFFFFFFFFFFFFFFFFFFFFFFFFFFF66
:105A5000FFFFFFFFFFFFFFFFFFFFFFFFFFFFFFFF56
:105A6000FFFFFFFFFFFFFFFFFFFFFFFFFFFFFFFF46
:105A7000FFFFFFFFFFFFFFFFFFFFFFFFFFFFFFFF36
:105A8000FFFFFFFFFFFFFFFFFFFFFFFFFFFFFFFF26
:105A9000FFFFFFFFFFFFFFFFFFFFFFFFFFFFFFFF16
:105AA000FFFFFFFFFFDFFFFFFFFFFFFFFFFFFFFF26
:105AB000FFDFFFDFFFFFFFFFFFFFFFDFFFDFFFFF76
:105AC000FFDFFFDFFFDFFFDFFFDFFFFFFFFFFFFF86
:105AD000FFFFFFFFFFFFFFFFFFFFFFFFFFFFFFFFD6
