:020000040800F2
:100000002007002441030008BF1E0008EF1D000860
:10001000BD1E0008CD06000885280008000000006D
:10002000000000000000000000000000ED260008B5
:10003000CF06000800000000C11E0008EF260008DF
:100040005B0300085B0300085B0300085B03000818
:100050005B0300085B0300085B0300085B03000808
:100060005B0300085B0300085B0300085B030008F8
:100070005B0300085B0300085B0300085B030008E8
:100080005B0300085B0300085B0300085B030008D8
:100090005B0300085B0300085B0300085B030008C8
:1000A0005B0300085B0300085B0300085B030008B8
:1000B0005B0300085B0300085B0300085B030008A8
:1000C0005B0300085B0300085B0300085B03000898
:1000D0005B0300085B0300085B0300085B03000888
:1000E0005B0300085B030008000000005B030008DE
:1000F0005B0300085B0300085B0300085B03000868
:100100005B0300085B0300085B0300085B03000857
:100110005B0300085B0300085B0300085B03000847
:100120005B0300085B0300085B0300085B03000837
:100130005B0300085B0300085B0300085B03000827
:1001400000000000000000000000000000000000AF
:100150005B0300085B0300085B0300085B03000807
:100160005B0300085B0300085B0300085B030008F7
:100170005B0300085B0300085B030008000000004D
:100180005B0300085B0300085B0300085B030008D7
:100190005B0300085B0300085B0300085B030008C7
:1001A0005B0300085B0300085B0300085B030008B7
:1001B0005B0300085B0300085B0300085B030008A7
:1001C0005B0300085B0300085B0300085B03000897
:1001D0005B0300085B0300085B0300085B03000887
:1001E0005B0300085B0300085B0300085B03000877
:1001F0005B0300085B0300085B0300085B03000867
:100200005B0300085B0300085B0300085B03000856
:100210005B0300085B0300085B0300085B03000846
:100220005B0300085B0300085B030008000000009C
:100230005B0300085B030008000000005B0300088C
:100240005B0300085B0300085B0300085B03000816
:100250005B0300085B0300085B0300085B03000806
:100260005B0300085B0300085B0300085B030008F6
:100270005B0300085B0300085B030008000000004C
:100280005B0300085B0300085B030008000000003C
:10029000000000005B03000800F002F800F040F8E6
:1002A0000AA090E8000C82448344AAF10107DA45D1
:1002B00001D100F035F8AFF2090EBAE80F0013F0E3
:1002C000010F18BFFB1A43F001031847F89F000005
:1002D00018A00000103A24BF78C878C1FAD8520795
:1002E00024BF30C830C144BF04680C6070470000B0
:1002F0000023002400250026103A28BF78C1FBD82F
:10030000520728BF30C148BF0B6070471FB502F0CD
:100310009FFB9DE8030000F0FBF81FBD10B510BD6A
:1003200000F052F91146FFF7F1FF02F0BDFA00F0BC
:1003300070F903B4FFF7F2FF03BC00F0A1F900006D
:100340000948804709480047FEE7FEE7FEE7FEE769
:10035000FEE7FEE7FEE7FEE7FEE7FEE704480549A5
:10036000054A064B70470000A127000899020008C3
:10037000200100242007002420030024200300245F
:1003800070B5064600F0A8F8056806F10B0020F0ED
:100390000704B4429CBF002070BD2B466A68BAB106
:1003A0001068A04210D304F1080188423CBF506895
:1003B000586007D35168101941601168091B01602A
:1003C00058601460101D70BD13465268002AE7D1B2
:1003D0002146284600F088F80028DED170BD70B5AF
:1003E0000446051F00F078F80068002C14BF44682C
:1003F00070BD002C18BFAC423CBF20466468F8D3E7
:1004000001680A18AA4218BF456003D12A68054648
:100410001144016028684119A1421CBF6C6070BD85
:100420006168696021680844286070BD10B5431C8C
:1004300002E010F8011B71B18107FAD14FF00132CF
:1004400002C88C1A8C4314EAC211F9D0C01A0A06E9
:1004500003D0C01E10BDC01A10BD0A0401D0801EFA
:1004600010BD0902FCD0401E10BD421E12F8013F13
:10047000002BFBD111F8013B002B02F8013BF9D115
:1004800070474FF0000200B5134694469646203957
:1004900022BFA0E80C50A0E80C50B1F12001BFF43D
:1004A000F7AF090728BFA0E80C5048BF0CC05DF8A3
:1004B00004EB890028BF40F8042B08BF704748BFF1
:1004C00020F8022B11F0804F18BF00F8012B704765
:1004D000704770477047000000487047C80000240C
:1004E000704770477047704738B504460A46002089
:1004F0006946AFF30080002808BF38BD0246009966
:10050000204600F03FF8012038BD012000F054B82B
:10051000F8B5AFF30080054600200C46102000BF60
:100520000646A819A0420DD9324669460020AFF30D
:100530000080070008BF00F03FF80098A04218BFF5
:100540000546C419FFF7C8FF05600746F01D20F0F7
:1005500007004619284600F00AF8B44208BFF8BD63
:10056000A21B31463868BDE8F84000F00BB8002106
:100570000160C0E9011070471020704700487047C3
:10058000C0000024034640688C46002818BF8842FB
:100590003CBF03464068F8D318681844884207D027
:1005A0000CF1030020F00700001D411A521A014609
:1005B000081D0A60FFF713BF10B500F039F8BDE859
:1005C000104000F02FB870477546FFF7D7FFAE46D2
:1005D00005006946534620F00700854618B020B54F
:1005E000FFF7BCFEBDE820404FF000064FF00007CB
:1005F0004FF000084FF0000B21F00701AC46ACE8CB
:10060000C009ACE8C009ACE8C009ACE8C0098D4637
:10061000704710B50446AFF300802046BDE8104097
:10062000FFF787BE002801D000F02AB8704700000D
:1006300010B5012805D0002103A000F027F8012003
:1006400010BD09A1F8E7000053494752544D454DEC
:100650003A204F7574206F662068656170206D6563
:100660006D6F7279000000003A2048656170206D5E
:10067000656D6F727920636F727275707465640056
:1006800001491820ABBEFEE72600020070B5054602
:100690000C460A2000E06D1C00F011F835B12878F6
:1006A0000028F8D102E0641C00F009F814B12078A9
:1006B0000028F8D1BDE870400A20AFF3008008B5EB
:1006C00069468DF800000320ABBE08BDFEE7704709
:1006D00070B5044600F032F90546601C02D00448AB
:1006E0000078044400F02AF9401BA042FAD370BD00
:1006F000240000242DE9FC4F01257E4C00234FF0FF
:10070000030A4FF0B04E4FF00F0BEBE005FA03F683
:1007100037403A0077D04F68012F05D0022F03D021
:10072000112F01D0122F1AD187684FEA4308D1F850
:100730000CC00AFA08F927EA09070CFA08FC4CEA87
:10074000070CC0F808C0476891F804C0B743CCF361
:10075000001C0CFA03FC4CEA070CC0F804C0C66885
:100760004FEA430CD1F80880E1460AFA0CF7BE4381
:10077000019708FA09F848EA0608C0F80C804E68A4
:10078000022E01D0122E12D1DE084FEA437C00EB7C
:10079000860600960F69366A4FEADC6C0BFA0CF895
:1007A00007FA0CF726EA08063743009E37620E79EF
:1007B0000768DDF804C006F0030606FA09F627EA22
:1007C0000C073E4306604E68F6001CD54A4E37685B
:1007D00047F00207376036689F0706F0020600966A
:1007E00023F0030606F1B046B1463F0FD6F8086481
:1007F000DFF808810BFA07FC404526EA0C0603D116
:100800004FF0000C41E06CE0DFF8F4C0604502D12D
:100810004FF0010C39E0DFF8ECC0604502D14FF039
:10082000020C32E0DFF8E0C0604502D14FF0030C6B
:100830002BE0DFF8D8C0604502D14FF0040C24E073
:10084000DFF8CCC0604502D14FF0050C1DE0DFF8A9
:10085000C4C0604502D14FF0060C16E0DFF8B8C006
:10086000604502D14FF0070C0FE0DFF8B0C06045E3
:1008700002D14FF0080C08E0DFF8A4C0604502D1B7
:100880004FF0090C01E04FF00A0C0CFA07FC4CEA9F
:10089000060CC9F808C426684F6826EA0206FF035A
:1008A00000D51643266066684F6826EA0206BF0335
:1008B00000D516436660D1F804C07646DEF80070B5
:1008C0005FEACC2C27EA020700D517433760D1F83E
:1008D00004C077685FEA8C2C27EA020700D517432B
:1008E00077605B1C0A681746DA407FF40FAFBDE8FB
:1008F000FC8F000080000058F444025800000258A9
:100900000004025800080258000C02580010025857
:100910000014025800180258001C02580020025807
:10092000002402580AB1816170470904FBE7000006
:1009300001480068000C70470010005C01488068A6
:1009400070470000240000240248816802781144A6
:100950008160704724000024032010B500F078F86F
:1009600000F03EFE0F4A104914681368C4F30322D6
:1009700003F00F038A5CC95C02F01F0201F01F0143
:10098000D0400A4A20FA01F11160094908600020AC
:1009900000F010F808B1012010BD00F02BF8002085
:1009A00010BD000018440258B2A200083400002410
:1009B0003000002470B50D4D04462878A0B14FF4E6
:1009C0007A71B1FBF0F00A490968B1FBF0F001F06F
:1009D000FBF948B9102C07D200222146501E00F026
:1009E00017F800206C6070BD012070BD2400002449
:1009F00030000024054808B5016841F0020101609B
:100A0000006800F00200009008BD0000F4440258A5
:100A10000E4BF0B41B680D46C3F30223C3F1070667
:100A2000042E00D90426191D072901D2002300E055
:100A3000DB1E012404FA06F19C40491E2940641E75
:100A4000994014402143F0BC01F01DBF0CED00E0C3
:100A5000064900F0070210B54FF6FF040868044B82
:100A6000204040EA02201843086010BD0CED00E071
:100A70000000FA05134970B50A68D243520705D53C
:100A8000096801F00701814213D118E00A6822F0D9
:100A9000070202430A60FFF751FF0A4D4FF47A76CE
:100AA0000446083D07E000BFFFF748FF001BB042C7
:100AB00001D9012070BD2868C0438004F4D400200F
:100AC00070BD00000C4802582DE9FC5F044650F848
:100AD000241B002500902E460801FE4FDFF8F88306
:100AE0001DD5606E50B1B0F5801F0CD0B0F5001F61
:100AF0000ED0B0F5401F1DD001250FE0386840F43E
:100B00000030386016E00221201D01F0DBF903E01F
:100B10000098022101F066FA05000BD02E462088CD
:100B2000C00523D5606D05281ED2DFE800F00C114A
:100B3000161B1B00626ED8F8001021F440111143FF
:100B4000C8F80010EBE7386840F40030386009E07E
:100B50000021201D01F0B6F903E00098002101F00A
:100B600041FA05466DB100E001252E46208880053A
:100B700028D5A06D80281ED00CDC90B140280ED165
:100B800014E0626DD8F8001021F007011143C8F895
:100B90000010EBE7C02813D0B0F5807F10D00125FE
:100BA0000FE0386840F40030386009E00021201D73
:100BB00001F088F903E00098002101F013FA0546DE
:100BC00095B12E462088DFF81093400509F10809F9
:100BD0002CD5D4F8A400B0F5800F20D00DDCA0B146
:100BE000B0F5001F0FD115E0A26DD8F8001021F468
:100BF000E0711143C8F80010E4E7B0F5C00F13D05E
:100C0000B0F5000F10D001250FE0386840F4003037
:100C1000386009E00021201D01F054F903E000983C
:100C2000002101F0DFF9054675B12E462088000548
:100C30002DD5D4F8A800B0F1007F21D00EDCA8B1EA
:100C4000B0F1807F10D116E0D4F8A420D9F80010BC
:100C500021F460011143C9F80010E7E7B0F1407FCB
:100C600013D0B0F1806F10D001250FE0386840F448
:100C70000030386009E00021201D01F023F903E075
:100C80000098002101F0AEF905466DB12E462068AE
:100C900080011FD5A06CD8B110280FD0202812D009
:100CA000302815D0012514E0D4F8A820D9F8001078
:100CB00021F0E0611143C9F80010E8E7386840F41A
:100CC0000030386004E00221201D01F0FBF80546E9
:100CD0006DB12E462088C0042BD5E06DB0F5005FC5
:100CE00020D00DDCA0B1B0F5805F0FD115E07A48BF
:100CF000A26C001F016821F0300111430160E9E797
:100D0000B0F5405F13D0B0F5804F10D001250FE053
:100D1000386840F40030386009E00021201D01F0FF
:100D2000D1F803E00098002101F05CF9054685B197
:100D30002E462088800429D5206EB0F5403F23D070
:100D400010DC08B3B0F5803F14D0B0F5003F0FD1F0
:100D500015E0E26DD8F8001021F4E0411143C8F825
:100D60000010E6E7B0F5802F0ED0B0F5A02F0BD025
:100D700001250AE00121201D01F0A4F803E00098FC
:100D8000012101F02FF905468DB12E46208840043F
:100D90002AD5D4F8AC00B0F1405F23D010DC08B302
:100DA000B0F1805F14D0B0F1005F0FD115E0226E7A
:100DB000D8F8001021F4E0211143C8F80010E5E74D
:100DC000B0F1804F0ED0B0F1A04F0BD001250AE05A
:100DD0000121201D01F076F803E00098012101F0C7
:100DE00001F905466DB12E46208800041FD5E06E3E
:100DF000D8B1B0F1805F0ED0B0F1005F10D0012506
:100E000014E0D4F8AC20D9F8001021F0E0411143EF
:100E1000C9F80010E8E7386840F40030386004E0B2
:100E20000121201D01F04EF805466DB12E462068C7
:100E3000C0011ED5606CD0B101280ED0022811D09F
:100E4000032814D0012513E0E26ED8F8001021F039
:100E500040511143C8F80010E9E7386840F4003009
:100E6000386004E00221201D01F02CF8054685B110
:100E70002E462068DFF85CB04002ABF11C0B57D562
:100E80001648016841F480710160FFF757FD824602
:100E90000EE01148626C001F016821F0030111434C
:100EA0000160E6E7FFF74AFDA0EB0A0064283DD8A1
:100EB0000A480068C005F5D57DBBDFF81CA0B4F872
:100EC000B0100AF1200ADAF8000001F4407100F4D1
:100ED000407005E02C440258504402580048025823
:100EE000884211D0DAF80010DAF8002021F44071BD
:100EF00042F48032CAF80020DAF8002022F480326E
:100F0000CAF80020CAF80010D4F8B000B0F5807F0D
:100F100021D1FFF713FD019019E008E0FFF70EFD66
:100F20000199411A41F28830814210D903252E4699
:100F30002078DFF830A4C0073DD0A06F182838D043
:100F400026DC80B3082829D0102825D12CE0DAF837
:100F500000008007E2D5D4F8B010C1F301200328C7
:100F600058460DD0016821F47C510160B4F8B020DE
:100F7000DAF80010C2F30B021143CAF80010D7E7E9
:100F8000F94A036802EA111223F47C511143ECE799
:100F900020280ED028280CD001250BE00121201D8F
:100FA00000F090FF04E004E00098012101F01AF83D
:100FB00005465DB12E46207880071ED5606F062855
:100FC00019D2DFE800F0160C11161616A26FDAF827
:100FD000001021F038011143CAF80010EBE701219D
:100FE000201D00F06FFF03E00098012100F0FAFFE0
:100FF000054675B100E001252E46207840071FD533
:10100000D4F89000062819D2DFE800F0160C11166B
:101010001616626FDAF8001021F007011143CAF8C2
:101020000010EAE70121201D00F04CFF03E00098CA
:10103000012100F0D7FF05469DB100E001252E46B5
:10104000207880062BD5D4F88C00B0F1405F24D0F6
:1010500011DC10B3B0F1805F15D0B0F1005F10D19A
:1010600016E0D4F89020D9F8001021F007011143C0
:10107000C9F80010E4E7B0F1804F0ED0B0F1A04FF6
:101080000BD001250AE00021201D00F01BFF03E02A
:101090000098022100F0A6FF05468DB12E4620786B
:1010A00040062BD5D4F89800B0F5406F24D011DC61
:1010B00010B3B0F5806F15D0B0F5006F10D116E009
:1010C000D4F88C20DAF8001021F0E0411143CAF87E
:1010D0000010E4E7B0F5805F0ED0B0F5A05F0BD054
:1010E00001250AE00021201D00F0ECFE03E000983D
:1010F000022100F077FF05468DB12E4620780006CC
:101100002BD5D4F89C00B0F5C04F24D011DC10B31F
:10111000B0F5005F15D0B0F5804F10D116E0D4F8CF
:101120009820D9F8001021F4E0511143C9F80010BB
:10113000E4E7B0F5004F0ED0B0F5204F0BD00125FD
:101140000AE00021201D00F0BDFE03E0009802210E
:1011500000F048FF05464DB12E46207800071ED509
:10116000D4F88000B0F5805F0AD00FE0D4F89C205E
:10117000D9F8001021F460411143C9F80010ECE7E0
:101180000098022100F02EFF00B10126D4F8802043
:10119000DAF8001021F440511143CAF80010207809
:1011A000C00613D5D4F89400B0F5807F05D100981F
:1011B000022100F017FF00B10126D4F89420D9F8DD
:1011C000001021F440711143C9F800102068000399
:1011D00016D5D4F8A00038B1B0F5803F09D0B0F5ED
:1011E000003F0BD001250AE00021201D00F06AFE1F
:1011F00003E00098022100F0F5FE054685B12E4679
:101200002068400322D5D4F88400B0F5801F11D0A7
:10121000B0F5001F13D0B0F5401F15D0012514E024
:10122000D4F8A020D9F8001021F440311143C9F8B6
:101230000010E5E7386840F40030386004E00098BA
:10124000012100F0CFFE054655B12E462068C003AF
:101250001CD5E06C70B1B0F5803F10D0012514E0D2
:10126000D4F88420DAF8001021F440111143CAF8B0
:101270000010EBE7386840F40030386004E00221E9
:10128000201D00F01FFE0546CDB12E4620688000CF
:1012900005D50098022100F0A5FE00B101262068C6
:1012A00080031BD5E06FB8B1B0F5807F10D0B0F5EA
:1012B000007F11D0B0F5407F0ED001250DE0294808
:1012C000E26C0838016821F4803111430160DDE7E8
:1012D000386840F400303860F5B32E462068C0020C
:1012E00007D5226FD8F8001021F000411143C8F84B
:1012F00000102068C00008D5D4F8B420DBF8001036
:1013000021F480411143CBF800102068800207D5FA
:10131000A26ED8F8001021F080711143C8F80010B7
:10132000206840000CD5DBF8001021F40041CBF818
:101330000010DBF80010D4F8B8201143CBF80010EF
:101340002068002807DA0748226D0838016821F074
:1013500040511143016000E008E086B10120BDE882
:10136000FC9F000054440258CFFFFF00E26FDAF800
:10137000001021F440711143CAF80010AEE70020BC
:10138000EDE700002DE9F05F04000F467ED0DFF8A6
:101390003882D8F8000000F00F00B8420CD2D8F81C
:1013A000001021F00F013943C8F80010D8F80000F0
:1013B00000F00F00B84269D12078844D40070AD56B
:1013C0002069296801F07001884204D9296821F058
:1013D00070010143296020787C4E361D00070AD534
:1013E0006069316801F07001884204D9316821F0E8
:1013F0007001014331602078C0060AD5A0693168C8
:1014000001F4E061884204D9316821F4E0610143CC
:1014100031602078DFF8B4B180060BF1080B0CD5F1
:10142000E1695846DBF8002002F07002914204D9CD
:10143000026822F070020A430260207880070AD511
:10144000E068296801F00F01884204D9296821F079
:101450000F01014329602078C0073ED05B49A26894
:101460002868183920F470601043286060680228EA
:1014700018D0032819D00968012819D04907002974
:101480004ADADFF848A1AAF1080A00E044E0DAF8F5
:10149000002022F007020243CAF80020FFF74EFAAC
:1014A000814612E009688903E9E709688901E6E7EE
:1014B000C905E4E7FFF742FAA0EB090141F28830E1
:1014C000814202D90320BDE8F09F6168DAF800008C
:1014D00000F03800B0EBC10FECD1207880070AD5BE
:1014E000E068296801F00F01884204D2296821F0E0
:1014F0000F0101432960D8F80010404601F00F01A8
:10150000B9420BD9016821F00F013943016000682D
:1015100000F00F00B84201D00120D4E72078400746
:101520000AD52069296801F07001884204D229682F
:1015300021F0700101432960207800070AD5606915
:10154000316801F07001884204D2316821F07001E5
:10155000014331602078C0060AD5A069316801F4E2
:10156000E061884204D2316821F4E06101433160D6
:10157000207880060CD5E1695846DBF8002002F09F
:101580007002914204D2026822F070020A430260A3
:1015900000F026F80E492A682B68C2F3032203F0F4
:1015A0000F038A5CC95C02F01F0201F01F01D040EA
:1015B000084A20FA01F111600749086007480068ED
:1015C000BDE8F05FFFF7F6B900200052184402585A
:1015D000B2A20008340000243000002428000024B7
:1015E000454970B545480968434B103B11F0380236
:1015F00008D00111082A03D0102A0BD0182A0BD0CA
:10160000084670BD19688906FBD51968C1F3C10188
:10161000C84070BD3A4870BD3749374D18310C1D70
:1016200024350A68096826682D6802F0030406F06C
:101630000102C1F30511C5F3CC0515FB02F200EE62
:10164000102AB8EE400AE9B32F4ADFED2E0AB7EEB2
:10165000001A6CB1DFED2D1A012C01D0022C43D001
:1016600002EE101A1068F8EE422A81EEA22A1EE05D
:101670001C68A40611D51B6801EE901A1168C3F30B
:10168000C103F8EE612AD84001EE900AC1F30800C8
:10169000F8EE611A81EEA22A0BE001EE901ADFED5E
:1016A0001C2A00BFF8EE611A106882EEA12AC0F36E
:1016B000080001EE900AF8EE611A40EE201A31EEB1
:1016C000810A00E015E022EE000A1068C0F346200F
:1016D000401C00EE900AF8EE600A80EE201ABCEE84
:1016E000C10A10EE100A70BD01EE901ADFED092A52
:1016F000D8E7002070BD0000104402580090D003CD
:1017000040787D0100000039304402580024744ABA
:101710000024744C20BCBE4B2DE9F05F04007CD04B
:10172000FF4F2078FE4D1837DFF8F493103DC007C7
:1017300048D0D9F80000396800F03800102815D0DA
:10174000182803D101F0030002280FD06068B0F51B
:10175000803F12D010B1B0F5A02F18D0286820F427
:1017600080302860286820F4802009E02868800301
:1017700028D560680028D2D024E0286840F4803062
:101780002860606888B1FFF7D9F8064609E0286844
:1017900040F480202860F0E7FFF7D0F8801B642831
:1017A0007ED828688003F7D50CE0FFF7C7F8064617
:1017B00005E000BFFFF7C2F8801B6428F0D8286856
:1017C0008003F7D4207841F20308D54E0C3E800701
:1017D00053D5D9F80000396810F038000ED0182819
:1017E00001D188070AD0E068A8B3296821F019015F
:1017F00001432960FFF7A2F882461BE028684007F2
:1018000002D5E06800288AD0FFF792F840451BD83F
:101810002069402812D0316800E0CCE021F47C310E
:1018200041EA0030306028E0FFF788F8A0EB0A00BA
:101830000228B5D828684007F6D5E5E7306820F4D7
:101840007C3040F40030EDE7207C316821F0FE412F
:1018500041EA0060E6E7FFE7286820F00100286021
:10186000FFF76CF8824605E0FFF768F8A0EB0A0086
:10187000022895D828684007F6D42078C0065FD59E
:10188000D9F80000DFF898B2396800F03800ABF101
:10189000040B082812D0182805D101F0030000E03D
:1018A000EAE001280AD0E0690028286838D040F032
:1018B00080002860FFF742F8824623E02868C005D0
:1018C00023D5E069802876D11FE0206A202821D026
:1018D000316821F0F84141EA8060306030E000BFBB
:1018E00094F82010DBF8002022F07C5242EA0161DB
:1018F000CBF8001024E000BFFFF720F8A0EB0A00AF
:10190000022896D82868C005F6D5FFF711F840459B
:10191000E6D8DAE7306820F0F84040F08040DCE7B5
:1019200020F080002860FFF709F8064605E000BFB8
:10193000FFF704F8801B02289BD82868C005F7D45D
:101940002078000729D576486169643000298046EF
:10195000016811D041F001010160FEF7EFFF06467A
:1019600005E000BFFEF7EAFF801B0228C9D8D8F8BF
:1019700000008007F6D510E021F001010160FEF7BC
:10198000DDFF064605E000BFFEF7D8FF801B0228FA
:1019900072D8D8F800008007F6D42078800623D5C6
:1019A000A0690028286810D040F480502860FEF715
:1019B000C5FF064605E02CE1FEF7C0FF801B0228AC
:1019C0005AD828688004F7D50EE020F480502860AB
:1019D000FEF7B4FF064604E0FEF7B0FF801B0228C6
:1019E0004AD828688004F7D4207840074FD5DFF81C
:1019F0003481D8F8001041F48071C8F80010FEF767
:101A00009DFF064605E000BFFEF798FF801B642897
:101A100032D8D8F80000C005F6D5414EA06860362F
:101A200001280AD008B1052813D0306820F0010041
:101A30003060306820F0040002E0306840F00100BF
:101A40003060A06841F2883A90B1FEF777FF804697
:101A50000AE0306840F004003060EEE7FEF76EFF09
:101A6000A0EB0801514507D830688007F6D50EE095
:101A7000FEF764FF804607E084E000BFFEF75EFFEC
:101A8000A0EB080151457DD830688007F6D4606A24
:101A9000F0B3DFF88C80D9F8001008F12008C1F30A
:101AA000C20103296FD00228286820F080702860C6
:101AB00003D0FEF743FF044680E0FEF73FFF0646F3
:101AC00005E000BFFEF73AFF801B022873D82868A4
:101AD0008001F7D4E26A40F2F331386854F8283FC5
:101AE000884340EA021018433860217B4FF4FE0C13
:101AF00022894FF0FE47208A4902267D521E401E51
:101B0000A1F5007189B20CEA0040C2F3080200E0BE
:101B100081E01143761E0143014807EA066203E0B3
:101B200010440258004802581C3011433B4AC8F880
:101B30000010016821F00101016011684FF6F8768C
:101B4000236AB14341EAC30111600168A26921F02F
:101B50000C01114301600168E26921F002011143A7
:101B60000160016841F480310160016841F4003195
:101B70000160016841F480210160016841F00101C8
:101B8000016001E017E01DE0286840F080702860E7
:101B9000FEF7D4FE044604E0FEF7D0FE001B022848
:101BA00009D828688001F7D535E000BFFEF7C6FEEA
:101BB000001B022802D90320BDE8F09F286880019D
:101BC000F4D428E039680128D8F8000021D0A26AAE
:101BD00001F0030393421CD1E26AC1F305118A426A
:101BE00017D1216BC0F30802491E8A4211D1616BE3
:101BF000C0F34622491E91420BD1A16BC0F30642AD
:101C0000491E914205D1E16BC0F30660491E814235
:101C100001D00120D0E70020CEE700003444025874
:101C20002DE9F047040029D04A4A4FF00009206806
:101C3000494B4A4D9042C4F8289006D0984204D0AF
:101C4000A84202D0E1680F2918D8E1684FF0010AD4
:101C5000E76B0831C9080AEB57167143904205D06B
:101C6000984203D0A84201D0082907D8904203D057
:101C7000984201D0A84204D1102902D90120BDE820
:101C8000F08794F8810020B9204684F8809000F015
:101C900067F8022084F881002068016821F00101C2
:101CA0000160A069B0F1806F0AD16068B0F5800F63
:101CB00006D1A06B20B92068016841F48051016011
:101CC000A56AE0692368E16B2843E2680843104392
:101CD0009860D4E90D02D4E905C1636A2569184307
:101CE000D4F820800A43266810432843A56DD4E920
:101CF0000172D4E9123140EA0C0040EA080038438E
:101D00000843104318432843F060606868B92068AE
:101D1000816821F4C05141F40061816020688168CC
:101D200021F4C06141F4806181602068016D21F07F
:101D3000010101656068400206D52068626DC168D6
:101D400021F000411143C160C4F8849084F881A05F
:101D5000002094E70030014000380040003C004083
:101D600010B586B0044614216846FEF78AFB134975
:101D70002068884220D11248016841F48041016006
:101D8000006800F4804005900D480838016841F073
:101D90000201016000680523022200F002000590A4
:101DA00000204FF4204100916946CDE90120CDE9A2
:101DB00003030448FEF79EFC06B010BD0038004047
:101DC000E844025800040258401EB0F1807F10B56C
:101DD00001D3012010BD4FF0E02460610F21601796
:101DE00000F051FD0020A0610721216110BDFEE738
:101DF00010B586B014216846FEF743FB1848016809
:101E000041F080010160016801F0800105910168E5
:101E100041F002010160016801F0020105910168D1
:101E200041F001010160006800220E4C44F2030100
:101E300000F0010005902046FEF774FD01222046C7
:101E40001103FEF76FFD012145F203000022032379
:101E50008DE80F0069462046FEF74CFC06B010BD29
:101E6000E044025800040258134800212DE9F041D3
:101E70004FF040520F4BC0E9072141624FF48004FC
:101E800081620726C16265114163E70081634FF0FB
:101E9000807CC1634FF0806E016441648164C164E1
:101EA00001654165816580E8F850BDE8F041FFF7C4
:101EB000B7BE00000038004038000024FEE770473D
:101EC000704700002DE9F047454D044689464FF024
:101ED000000A2868C04380070AD0414E283E306877
:101EE00020F080603060FEF729FD0746B04608E02C
:101EF0000120BDE8F08700BFFEF720FDC01B0228CF
:101F000067D8D8F800000001F6D4206829684FF49B
:101F1000FE0721F47C313E0241EA00302860207A3D
:101F2000A389B4F804C040022D4D2D495B1E227CCC
:101F3000ACF1010C1035091DA0F5007080B2521EE5
:101F4000CCF3080C07EA034340EA0C00184306EA06
:101F50000262104328600868626920F0C0001043E4
:101F600008600A68A06922F0200202430A60281D66
:101F70000A6822F010020A6002684FF6F873E469FA
:101F80009A4342EAC40202600868B9F1000F40F0C7
:101F900010020A6011D00868B9F1010F11D040F4A5
:101FA00000100860D8F80000444640F08060C8F88F
:101FB0000000FEF7C3FC05460DE0086840F4002071
:101FC000EFE740F48010ECE7FEF7B8FC401B022876
:101FD00001D903208DE720680001F5D5504688E738
:101FE000284402582DE9F047454D044689464FF0F4
:101FF000000A2868C04380070AD0414E283E306856
:1020000020F080503060FEF799FC0746B04608E0AB
:102010000120BDE8F08700BFFEF790FCC01B02283E
:1020200067D8D8F800008000F6D4208829684FF4DB
:10203000FE0721F07C713E0241EA00502860207AC0
:10204000A389B4F804C040022D4D2D495B1E227CAB
:10205000ACF1010C1835091DA0F5007080B2521EBC
:10206000CCF3080C07EA034340EA0C00184306EAE5
:102070000262104328600868626920F440601043DF
:1020800008600A68A06922F4007202430A60281DF1
:102090000A6822F480720A6002684FF6F873E469F5
:1020A0009A4342EAC40202600868B9F1000F40F4A2
:1020B00080720A6011D00868B9F1010F11D040F0A8
:1020C00080700860D8F80000444640F08050C8F89E
:1020D0000000FEF733FC05460DE0086840F4800080
:1020E000EFE740F40000ECE7FEF728FC401B022875
:1020F00001D903208DE720688000F5D5504688E798
:10210000284402582DE9FF4F83B08A46DDE9118447
:10211000039D04B90124434898F800305A19868871
:10212000B24206D298F80120C08802EB0A0181422F
:1021300003D3002007B0BDE8F08F4FF0000B6BE039
:1021400013997F2903D2D8F80430203904E0BF293D
:1021500007D9D8F80430603901FB00B033F810001B
:1021600015E0A82902D0B82907D011E000EB8002C1
:10217000D8F804100BEB421007E000EB4012D8F83F
:10218000041002EBC01202EB0B0031F810000090BB
:10219000002038E0009800FA09F0000417D5002765
:1021A00012E000BF0AEB070000B20190002607E032
:1021B000A819059A00B2019900F0CEF8761CF6B283
:1021C000A642F5D37F1CFFB2A742EBD318E01098CC
:1021D000B0B1002712E000BF0AEB070000B2019087
:1021E000002607E0A819069A00B2019900F0B4F899
:1021F000761CF6B2A642F5D37F1CFFB2A742EBD302
:10220000254409F1010098F8001081464945C1D8DC
:10221000039DA2440BF1010B98F8010058458FD89B
:10222000139887E7000000242DE9F0411C46114B6C
:102230001546069E9A8890421AD2DF88B94217D274
:1022400043195B1E934213DA0A19521EBA420FDA7F
:1022500097B29AB23B4600F099F900F02FF9690065
:102260003046614300F06EF9BDE8F04100F0D4B9AA
:10227000BDE8F0810000002438B515461C46A84290
:10228000049A0DD1A142009205DD091B491C0BB235
:102290002146012213E05A1A521C13B201220EE009
:1022A000A1420FD1A842009205DD401B401C02B2A2
:1022B0002846012303E02A1A521C12B2012300F01F
:1022C00065F838BD00922A4600F001F838BD2DE9C6
:1022D000FC5F06469A46901B90460D4600D540424C
:1022E00007B2BAEB050000D540420FFA80F94FF073
:1022F000FF30464501DA012100E0014601915545D4
:1023000000DA01200C9AA7EB090183460CB2514672
:10231000404600F021F8C9F10000009016E00C9A48
:102320002946304600F018F80099600000B2884253
:1023300005DD0199A4EB090214B231440EB2B84292
:1023400004DAE11905EB0B000CB205B24645E6D103
:102350005545E4D1BDE8FC9F07B5002812DB0A4AC9
:10236000938898420EDA00290CDBD288914209DA70
:102370008BB282B289B280B200F008F9012102A8C2
:1023800000F088F80EBD00000000002470B515466E
:10239000134A1C469388984221DAD28891421EDA69
:1023A00046199E4201DD1B1A1DB20B19934201DD35
:1023B000521A14B20B1942195B1E521E89B280B216
:1023C0009BB292B200F0E2F8002614FB05F404E0A0
:1023D000012104A800F05EF8761CB442F8D870BD64
:1023E0000000002408B500900448C18880880BB222
:1023F00002B200210846FFF7C9FF08BD0000002413
:1024000070B5094D4FF48044002221462846FEF75E
:1024100089FA1420FEF75CF921462846BDE8704091
:102420000122FEF77FBA0000000402582DE9F041B6
:10243000C820FEF74DF91549F0208880C88000F0CB
:102440003DF8FFF7DDFF124C14F8015B17E0207830
:1024500000F03CF86078A41C30F0800600F08007A3
:1024600004D03146204600F06DF834443FB114F8F2
:10247000010BFF2801D14FF4FA70FEF729F9681E0D
:10248000C5B2E4D2BDE8F04100F0C6B800000024B7
:102490005A2A000870B50C46054600F00FF806E011
:1024A0002888000A00F030F8287800F02DF8601E27
:1024B00084B2F5D2BDE8704000F0AEB80248002208
:1024C0004FF48051FEF72EBA0004025810B50022D6
:1024D00004460B480221FEF725FA0A49094A094831
:1024E00020320B68143043F001030B600B6843F497
:1024F00000730B6014700168C904FCD510BD0000A6
:10250000000402580038004010B5012204460B4870
:102510000221FEF707FA0A49094A094820320B68E6
:10252000143043F001030B600B6843F400730B603D
:1025300014700168C904FCD510BD000000040258E5
:102540000038004070B501220C46022105460D48B6
:10255000FEF7E8F90C480C4A0B49203203681431A5
:1025600043F001030360036843F40073036006E073
:1025700015F8010B10700868C004FCD5641E002C0F
:10258000F6D170BD00040258003800402DE9F0413A
:10259000984615460E460746FFF790FF1D4CAF4282
:1025A00016D8A088854213D820883918284487B2C5
:1025B0008DB22A20FFF78AFF280AFFF7A5FFE8B2AD
:1025C000FFF7A2FF380AFFF79FFFF8B2FFF79CFF63
:1025D0004046864217D8E188884214D8618808EBC3
:1025E000010085B2721894B22B20FFF76FFF200A0A
:1025F000FFF78AFFE0B2FFF787FF280AFFF784FFA3
:10260000E8B2FFF781FF2C20FFF760FFBDE8F04143
:1026100000F002B800000024012202481103FEF776
:1026200081B90000000402582DE9FF5F99469246E7
:102630008B460646DDE91054DDE90E87BDB901255C
:1026400015E0CDE90250CDE900874B465246594688
:102650003046FFF757FD2178884203D0C8B204B056
:10266000BDE8F09F3878641C00FB056086B22078D6
:102670000028E6D1C0B2F2E72DE9F0410446FFF7A9
:102680001DFF3620FFF722FF012C2046164C4FF08D
:1026900000064FF0F00507D0022807D05027032886
:1026A00012D004280CD117E0002000E06020FFF7D2
:1026B0002BFFA580E580268066800020FFF792FE34
:1026C000BDE8F041FFF7A8BFC020FFF71DFFA580C0
:1026D000E58026806780F0E7A020FFF715FFA58042
:1026E000E5802780E8E70000000000247047FEF73F
:1026F0002BB9000070B5CCB04C212FA8FDF7C1FE5E
:10270000202142A8FDF7BDFEBC216846FDF7B9FEB9
:102710000220FEF7AFF9204800242049026842F465
:102720004042026002680A6842F001020A600968D9
:1027300001F001014A9101688904FCD50DF1E40C16
:102740000521C022022038908CE807003C90082523
:102750003D90C3033E900126CDE93F5441942FA8FC
:10276000CDE92F63FEF7D8FF40203F210301CDE9DB
:1027700045500322CDE9470342AB499042A883E884
:1027800016000421FEF7FEFD6802179400906846CB
:10279000FEF79AF94CB070BD184802582C04005846
:1027A0002E48F0B52E4A016841F4700101601068AE
:1027B00000F00F00072804D2106820F00F00C01DA1
:1027C000106028490020274C10340B68264D43F038
:1027D00001030B6020600B682B400B60136803F053
:1027E0000F03072B04D9136823F00F03DB1D1360BD
:1027F0001C4C1E4A18341E4B261D371D2060194CD8
:102800001C4D28343060261D3860371D23603B1D69
:1028100035601C1D3A60251D2E1D1860331D226079
:102820002860326018600A680E4B134C22F4802234
:1028300060330A60186020686FF30F00B0F1005F2A
:1028400003D20E490120C1F8080143F2D2000C491D
:10285000024B4A03803B08601A60F0BD88ED00E03F
:1028600000200052004402587FEDF6EA8002010188
:10287000000202020000FF010010005C0080005115
:1028800000400052FEE7090700284FEA116104DB0F
:1028900000F1E02080F80014704700F00F0000F114
:1028A000E02080F8141D70471FB5FEF755F8FFF7BC
:1028B00021FFFFF79DFAFFF7D7FA01222B481146B7
:1028C000FEF730F8FFF7B2FD0120FFF7D5FE4C20F0
:1028D000FFF788FD26A000F077F828490124CDE90C
:1028E00002404C234FF6FF723220CDE90041142103
:1028F000FFF79AFE224D2868FDF771FD21A000F038
:1029000063F829494C23CDE902400A204FF478426C
:10291000CDE90041A021FFF787FE2868FDF75FFDA4
:1029200022A000F051F802210390254A4C23009484
:102930000820CDE90121C8214FF4FC62FFF774FEA5
:102940002868FDF74CFD1F48502355220090412177
:102950001846FFF769FCEE234FF6E070EF221946A8
:1029600000900120FFF788FCFEE7000000040258F9
:1029700053544D33322054465400000018000024B4
:1029800020000024D09AD0BBD0B0D181D181D0BD5D
:10299000D18BD0B920D0B4D0B8D181D0BFD0BBD0EA
:1029A000B5D0B9202121210010000024535437371D
:1029B0003839203A20323430783234300000000088
:1029C00008000024926D0008F8B50646FDF72EFDBC
:1029D0000420FDF7D5FC1C4D1CA2002128600170CD
:1029E000106800903046FDF721FD0024074624E0E2
:1029F000305D641CC0281AD3D02802D0D12816D14B
:102A00000BE0305D641C812805D0A0F190012F29D6
:102A10000DD830300AE0A82009E0305D641C912810
:102A20000FD0A0F180010F2901D87030C0B28DF80D
:102A3000000028686946FDF718FDBC42D8DB28680D
:102A4000F8BDB820F3E700002000002430000000AB
:102A50004FF04070E1EE100A704709018096118036
:102A6000FF3A81550A3601002A04000000F02B04C9
:102A70000000014021800A13800A29800A0000001A
:102A80000000000000000000000000000000000046
:102A900000100010001000100010001000000010C6
:102AA00000000028002800280000000000000000AE
:102AB0000000000000240024007E00240024007E8A
:102AC000002400240000001000380054005000389A
:102AD000005400540038001000200054005800300A
:102AE00000280054001400080000001000280028EE
:102AF00000100034004800480034000000100010AE
:102B000000100000000000000000000000000008AD
:102B1000001000200020002000200010000800000D
:102B20000020001000080008000800080010002025
:102B30000000001000380010002800000000000015
:102B4000000000000000000000100010007C0010D9
:102B50000010000000000000000000000000000065
:102B60000000001000100020000000000000000025
:102B7000003800000000000000000000000000001D
:102B80000000000000000000001000000008000825
:102B9000001000100010001000200020000000387D
:102BA0000044004400540044004400440038000045
:102BB0000010003000500010001000100010001035
:102BC0000000003800440044000400080010002009
:102BD000007C0000003800440004001800040004D9
:102BE00000440038000000080018002800280048B1
:102BF000007C000800080000007C004000400078D5
:102C00000004000400440038000000380044004084
:102C1000007800440044004400380000007C0004B8
:102C200000080010001000200020002000000038E4
:102C300000440044003800440044004400380000D0
:102C40000038004400440044003C000400440038C4
:102C50000000000000000010000000000000000064
:102C60000010000000000000001000000000000044
:102C700000100010002000000000000C0030004098
:102C80000030000C00000000000000000000007C8C
:102C90000000007C00000000000000000000006058
:102CA0000018000400180060000000000038004414
:102CB00000040008001000100000001000000038A0
:102CC0000044004C0054005C00400040003800000C
:102CD00000100028002800280028007C0044004440
:102CE00000000078004400440078004400440044A0
:102CF00000780000003800440040004000400040E0
:102D000000440038000000700048004400440044C3
:102D10000044004800700000007C00400040007C3F
:102D2000004000400040007C0000007C004000406B
:102D3000007800400040004000400000003800449F
:102D400000400040005C00440044003800000044A3
:102D500000440044007C004400440044004400005F
:102D60000038001000100010001000100010003893
:102D700000000004000400040004000400040044F7
:102D80000038000000440048005000600050004837
:102D90000048004400000040004000400040004067
:102DA00000400040007C00000044006C006C0054B7
:102DB00000440044004400440000004400640064F7
:102DC00000540054004C004C004400000038004403
:102DD00000440044004400440044003800000078EF
:102DE00000440044004400780040004000400000DF
:102DF00000380044004400440044004400540038BB
:102E00000004007800440044004400780048004872
:102E10000044000000380044004000300008000476
:102E2000004400380000007C00100010001000106A
:102E30000010001000100000004400440044004452
:102E400000440044004400380000004400440044B2
:102E50000028002800280010001000000044004452
:102E6000005400540054006C002800280000004466
:102E7000002800280010001000280028004400004E
:102E8000004400440028002800100010001000102A
:102E90000000007C0004000800100010002000402A
:102EA000007C00000018001000100010001000103E
:102EB000001000180000002000200010001000107A
:102EC0000010000800080000003000100010001082
:102ED0000010001000100030000000100028002832
:102EE000004400000000000000000000000000009E
:102EF0000000000000000000000000FE00000020B4
:102F000000100000000000000000000000000000B1
:102F10000000000000380044003C0044004C003435
:102F20000000004000400058006400440044006479
:102F3000005800000000000000380044004000403D
:102F4000004400380000000400040034004C004439
:102F50000044004C00340000000000000038004431
:102F6000007C0040004400380000000C0010007C91
:102F70000010001000100010001000000000000001
:102F80000034004C0044004C003400040078004041
:102F90000040005800640044004400440044000025
:102FA0000010000000700010001000100010001051
:102FB0000000001000000070001000100010001051
:102FC000001000E000400040004800500060005049
:102FD00000480044000000700010001000100010B5
:102FE00000100010001000000000000000780054E5
:102FF0000054005400540054000000000000005829
:10300000006400440044004400440000000000004C
:103010000038004400440044004400380000000030
:103020000000005800640044006400580040004064
:10303000000000000034004C0044004C0034000448
:103040000004000000000058006400400040004000
:10305000004000000000000000380044003000087C
:1030600000440038000000200020007800200020EC
:103070000020002000180000000000000044004470
:1030800000440044004C00340000000000000044F4
:103090000044002800280028001000000000000064
:1030A000005400540054006C002800280000000068
:1030B0000000004400280010001000280044000018
:1030C0000000000000440044002800280010001008
:1030D000006000000000007C00080010002000409C
:1030E000007C0000001800100010002000200010DC
:1030F0000010001800000010001000100010001058
:103100000010001000100000003000100010000837
:103110000008001000100030000000000000000057
:103120000032004C00000000000000000000000021
:10313000000000000000000000000000000000107F
:103140000028002800280028007C004400440000DB
:1031500000780040004000780044004400440078BB
:10316000000000780044004400780044004400441B
:1031700000780000007C004000400040004000401B
:10318000004000400000001C002400240024002413
:1031900000240024007E0042007C004000400078B3
:1031A000004000400040007C000000540054003803
:1031B000003800100038005400540000007800442B
:1031C000000400180004000400040078000000441B
:1031D000004C004C005400540064006400440000A3
:1031E0000054004C004C005400540064006400443F
:1031F00000000044004800500060005000480048B3
:1032000000440000001C00240024002400240024AA
:103210000024004400000044006C006C0054004492
:103220000044004400440000004400440044007C8A
:1032300000440044004400440000003800440044BE
:10324000004400440044004400380000007C004476
:10325000004400440044004400440044000000785E
:10326000004400440044007800400040004000005A
:103270000038004400400040004000400044003856
:103280000000007C00100010001000100010001062
:103290000010000000440044002800280010001026
:1032A000002000600000001000380054005400545A
:1032B00000540038001000000044002800280010CE
:1032C0000010002800280044000000480048004882
:1032D0000048004800480048007C000400440044C6
:1032E00000440044003C00040004000400000044CA
:1032F000004400540054005400540054007C00006A
:103300000044004400540054005400540054007E13
:103310000002006000200020003800240024002467
:10332000003800000042004200420072004A004A99
:10333000004A007200000040004000400078004455
:103340000044004400780000003800440004001CE1
:1033500000040004004400380000004C00520052F9
:103360000072005200520052004C0000003C004429
:1033700000440044003C00240024004400000000FD
:10338000000000380044003C0044004C00340000C1
:103390000004003800400058006400440044003835
:1033A0000000000000000070004800700048004865
:1033B0000070000000000000007800400040004065
:1033C0000040004000000000000000180028002815
:1033D00000280028007C0044000000000038004461
:1033E000007C004000440038000000000000005451
:1033F00000540038001000380054000000000000A5
:10340000007800480010000800080070000000006C
:1034100000000048004800580068004800480000CC
:10342000003000000048004800580068004800488C
:1034300000000000000000480050006000500048FC
:1034400000440000000000000018002800280028A8
:10345000002800480000000000000044006C0054F8
:103460000044004400440000000000000044004408
:10347000007C0044004400440000000000000038CC
:1034800000440044004400440038000000000000F4
:103490000078004400440044004400440000000060
:1034A00000000058006400440064005800400040E0
:1034B0000000000000380044004000400044003894
:1034C0000000000000000078005400540054005434
:1034D00000540000000000000044004400280028C0
:1034E00000100010006000000000001000380054C0
:1034F00000540038001000000000000000440028C4
:1035000000100010002800440000000000000048E7
:103510000048004800480048007C0004000000000B
:1035200000440044003C00040004000400000000CB
:10353000000000540054005400540054007C00006B
:103540000000000000540054005400540054007E59
:103550000002000000000060002000380024002469
:103560000038000000000000004200420072004AE3
:10357000004A007200000000000000200020003817
:10358000002400240038000000000000003800443F
:10359000001C000400440038000000000000004C43
:1035A0000052007200520052004C00000000000067
:1035B0000038004800480038002800480000002873
:1035C000007C00400040007800400040007C00008B
:1035D0000028000000380044007C0040004400380F
:1035E00000000000000000000000000000000000DB
:1035F00000000000000000000000000000000000CB
:103600000000000000000000000C000C000C000C8A
:10361000000C000C000C000C000C000C000C000056
:10362000000C000C0000000000000000001B001B4C
:10363000001B001B001B0000000000000000000039
:10364000000000000000000000000000000000007A
:103650008019801980198019C07FC07F80190033BC
:10366000C07FC07F00330033003300330000000010
:1036700000000000001E003F807580650074003C63
:10368000001E00078005806580658075003F001E74
:103690000004000400000000007000D840D8C0D82A
:1036A00080D900730006000C801BC036C066C0467F
:1036B000C00680030000000000000000001E003F64
:1036C000003300330033001E000CC03CC066806332
:1036D00080618063C03E801C00000000000000008C
:1036E000000C000C000C000C000C0000000000009E
:1036F00000000000000000000000000000000000CA
:103700000000800000010003000600060004000C19
:10371000000C000C000C000C000C0004000600065D
:10372000000300018000002000100018000C000CB5
:10373000000400060006000600060006000600045D
:10374000000C000C0018001000200000000C002DE0
:10375000003F001E003300000000000000000000D9
:103760000000000000000000000000000000000059
:1037700000000000000C000C000C000CC0FFC0FF9B
:10378000000C000C000C000C000000000000000009
:103790000000000000000000000000000000000029
:1037A000000000000000000000000000000C000C01
:1037B00000040004000800000000000000000000F9
:1037C0000000000000000000001E001E00000000BD
:1037D00000000000000000000000000000000000E9
:1037E00000000000000000000000000000000000D9
:1037F00000000000000C000C0000000000000000B1
:103800000003000300030006000600060006000C8B
:10381000000C000C000C001800180018000000003C
:1038200000000000001E003F003380618061806165
:10383000806D806D8061806180610033003F001E7B
:1038400000000000000000000006000E001E003610
:103850000026000600060006000600060006000618
:10386000000600060000000000000000001E003FEF
:10387000807380618061800100030006000C0018E5
:1038800000300060807F807F0000000000000000AA
:10389000001C003E006300630003000E000E0003E6
:1038A0008001800180618073003F001E00000000E5
:1038B000000000000006000E000E001E001E001694
:1038C000003600360066807F807F00060006000616
:1038D0000000000000000000007F007F006000602A
:1038E0000060006E007F80638001800180618073D2
:1038F000003F001E0000000000000000001E003F0E
:10390000803380610060006E007F80738061806121
:1039100080618033003F001E0000000000000000B6
:10392000807F807F80010003000300060006000CFA
:10393000000C000C0008001800180018000000001F
:1039400000000000001E003F806380618061002154
:10395000001E003F8061806180618061003F001E29
:103960000000000000000000001E003F00738061A6
:10397000806180618073803F801D80018061007361
:10398000003F001E000000000000000000000000DA
:1039900000000000000C000C00000000000000000F
:1039A00000000000000C000C0000000000000000FF
:1039B00000000000000000000000000C000C0000EF
:1039C0000000000000000000000C000C00040004D7
:1039D0000008000000000000000080008003000ECE
:1039E000003800600038000E8003800000000000F6
:1039F00000000000000000000000000000000000C7
:103A0000807F807F00000000807F807F00000000BA
:103A100000000000000000000000000000000000A6
:103A2000000000400070001C000780010007001C1F
:103A300000700040000000000000000000000000D6
:103A4000001F803FC071C060C000C001800300073C
:103A5000000E000C000C0000000C000C0000000028
:103A600000000000001E003F803180718063806F85
:103A7000806D806D806F806700600032003E001CAA
:103A80000000000000000000000E000E001B001BE4
:103A9000001B001B80318031803F803F8031C0603F
:103AA000C060C0600000000000000000007C007EDC
:103AB0000063006300630063007E007E006380613A
:103AC00080618063007F007E000000000000000035
:103AD000001E003F80318061006000600060006077
:103AE0000060006080618031003F001E0000000027
:103AF00000000000007C007F0063806380618061C3
:103B0000806180618061806100630063007E007C71
:103B10000000000000000000807F807F00600060E7
:103B200000600060007F007F006000600060006057
:103B3000807F807F0000000000000000807F807F89
:103B40000060006000600060007F007F0060006037
:103B500000600060006000600000000000000000E5
:103B6000001E003F80318061006000600060806363
:103B70008063806180618031803F001E0000000012
:103B800000000000806180618061806180618061EF
:103B9000807F807F806180618061806180618061E1
:103BA0000000000000000000003F003F000C000C7F
:103BB000000C000C000C000C000C000C000C000CA5
:103BC000003F003F00000000000000008001800175
:103BD000800180018001800180018001800180617D
:103BE00080618073003F001E0000000000000000A4
:103BF000C0608061006300660066006C0078007C35
:103C000000660066006380618061C06000000000A3
:103C10000000000000600060006000600060006064
:103C2000006000600060006000600060807F807F56
:103C30000000000000000000C071C071C07BC07AAD
:103C4000C06AC06AC06EC064C060C060C060C0604E
:103C5000C060C06000000000000000008071807142
:103C6000807980798079806D806D806D80658067D6
:103C700080678067806380630000000000000000B0
:103C8000001E003F0033806180618061806180613F
:103C90008061806180610033003F001E00000000F1
:103CA00000000000007E007F806380618061806191
:103CB0008063007F007E0060006000600060006044
:103CC0000000000000000000001E003F0033806183
:103CD0008061806180618061806180658067003380
:103CE000803F401E0000000000000000007E007FBA
:103CF0008063806180618063007F007E0066006376
:103D0000006380618061C06000000000000000006E
:103D1000000E001F8031803100300038001E000787
:103D20008003806180618031003F001E0000000040
:103D300000000000C0FFC0FF000C000C000C000CD5
:103D4000000C000C000C000C000C000C000C000C13
:103D500000000000000000008061806180618061DF
:103D60008061806180618061806180618061807339
:103D7000003F001E0000000000000000C060C060A6
:103D8000C060803180318031001B001B001B001B94
:103D9000000E000E000E00040000000000000000F5
:103DA000C0C0C0C0C0C0C0C0C0C0C0CC804C804C6F
:103DB000805E8052805280738061806100000000CC
:103DC00000000000C0C0806080610033003B001E26
:103DD000000C000C001E001F003B80718061C0C001
:103DE0000000000000000000C0C08061806100335E
:103DF0000033001E001E000C000C000C000C000C18
:103E0000000C000C0000000000000000803F803F1C
:103E10008001000300030006000C000C00180018CD
:103E200000300060807F807F000000000000000FF5
:103E3000000F000C000C000C000C000C000C000C1F
:103E4000000C000C000C000C000C000C000C000F0F
:103E5000000F0000001800180018000C000C000CE7
:103E6000000C000600060006000600030003000325
:103E7000000000000000001E001E000600060006F4
:103E80000006000600060006000600060006000602
:103E9000000600060006001E001E0000000C000CBC
:103EA000001E0012003300338061806100000000BA
:103EB0000000000000000000000000000000000002
:103EC00000000000000000000000000000000000F2
:103ED0000000000000000000000000000000E0FF03
:103EE0000000000000380018000C00000000000076
:103EF00000000000000000000000000000000000C2
:103F000000000000000000000000000000000000B1
:103F1000001F803F80618001801F803F806180633F
:103F2000807FC038000000000000000000600060DA
:103F300000600060006E007F80738061806180613E
:103F400080618073007F006E0000000000000000B0
:103F50000000000000000000001E003F8073806130
:103F60000060006080618073003F001E0000000060
:103F7000000000008001800180018001801D803FE1
:103F8000807380618061806180618073803F801D6B
:103F90000000000000000000000000000000000021
:103FA000001E003F00738061807F807F0060807111
:103FB000003F001E0000000000000000C007C00F0E
:103FC000000C000C807F807F000C000C000C000CAB
:103FD000000C000C000C000C0000000000000000B1
:103FE000000000000000801D803F807380618061C0
:103FF000806180618073803F801D80018063007FCD
:10400000003E00000060006000600060006F807F84
:104010008071806180618061806180618061806188
:104020000000000000000000000600060000000084
:10403000003E003E000600060006000600060006E0
:104040000006000600000000000000060006000058
:104050000000003E003E00060006000600060006C6
:1040600000060006000600060046007E003C000038
:104070000060006000600060806100630066006CAA
:10408000007C0076006300638061C0600000000077
:1040900000000000003E003E00060006000600068C
:1040A00000060006000600060006000600060006E0
:1040B0000000000000000000000000000000000000
:1040C00080DDC0FFC0CEC0CCC0CCC0CCC0CCC0CC8A
:1040D000C0CCC0CC000000000000000000000000C8
:1040E00000000000006F807F8071806180618061CE
:1040F000806180618061806100000000000000003C
:104100000000000000000000001E003F807380617E
:104110008061806180618073003F001E00000000AC
:1041200000000000000000000000006E007F8073AF
:1041300080618061806180618073007F006E0060BB
:104140000060006000600000000000000000801DB2
:10415000803F807380618061806180618073803F77
:10416000801D8001800180018001000000000000AE
:10417000000000000067803F003900300030003050
:10418000003000300030003000000000000000006F
:104190000000000000000000001E803F8061006001
:1041A000007F803F80018061007F001E00000000D2
:1041B000000000000000000800180018007F007FC9
:1041C000001800180018001800180018801F800F31
:1041D00000000000000000000000000000000000DF
:1041E00080618061806180618061806180618063C5
:1041F000807F803D00000000000000000000000003
:1042000000000000C060803180318031001B001B45
:10421000001B000E000E0006000000000000000061
:10422000000000000000000080DD80DD80DD005522
:1042300000550055007700770022002200000000A2
:10424000000000000000000000000000806100335A
:104250000033001E000C000C001E00330033806190
:10426000000000000000000000000000000080616D
:104270008061803100330033001B001B001B000EE7
:10428000000E000E001C007C00700000000000000A
:1042900000000000C07FC07F800100030006000C0A
:1042A00000180030C07FC07F0000000000008003C5
:1042B000800700060006000600060006000E001C2F
:1042C000001C000E0006000600060006000680071F
:1042D0008003000600060006000600060006000631
:1042E000000600060006000600060006000600069E
:1042F0000006000600060038003C000C000C000C14
:10430000000C000C000E00070007000E000C000C53
:10431000000C000C000C003C003800000000000005
:1043200000000000000000008038807F004700008F
:10433000000000000000000000000000000000007D
:10434000000000000000000000000000000000006D
:10435000000000000000000000000000000000005D
:10436000000000000008001C001C0036003600366B
:1043700000630063007F80FF80C180C180C180C175
:10438000000000000000000000FF00FF00C000C0AF
:1043900000C000FE00FF80C380C180C180C180C317
:1043A00000FF00FE000000000000000000FE00FF13
:1043B00000C300C300C300FE00FF80C180C180C1F4
:1043C00080C180C180FF00FF0000000000000000ED
:1043D00080FF80FF00C000C000C000C000C000C05F
:1043E00000C000C000C000C000C000C0000000004D
:1043F00000000000000F001F001B001B001B003B03
:104400000033003300330063006380FF80FF80C10E
:10441000000000000000000080FF80FF00C000C01E
:1044200000C000FF00FF00C000C000C000C000C00E
:1044300080FF80FF0000000000000000408CC0CC26
:10444000C0CC804C806D807F003F000C001E003F80
:10445000806D806DC0CC408C00000000000000002A
:10446000007E00FF80C3808180018003000F000F69
:1044700080038001808180C300FF007E0000000077
:104480000000000080C180C180C380C780C780CD8C
:1044900080CD80D980D980F180E180E180C180C168
:1044A000000000000000001C80C180C180C380C7E4
:1044B00080C780CD80CD80D980D980F180E180E136
:1044C00080C180C1000000000000000080C180C3E6
:1044D00000C700CE00DC00F800F000F000F800DCBF
:1044E00000CE00C780C380C10000000000000000B3
:1044F000801F803F80718061806180618061806108
:10450000806180618061806180E180C10000000085
:104510000000000080C180C180E380E380F780F765
:1045200080DD80DD80C980C980C180C180C180C13B
:10453000000000000000000080C180C180C180C177
:1045400080C180FF80FF80C180C180C180C180C1E7
:1045500080C180C10000000000000000003E007F1C
:1045600080E380C180C180C180C180C180C180C121
:1045700080C180E3007F003E0000000000000000DA
:1045800080FF80FF80C180C180C180C180C180C1A7
:1045900080C180C180C180C180C180C10000000095
:1045A0000000000000FE00FF80C380C180C180C306
:1045B00000FF00FE00C000C000C000C000C000C07E
:1045C0000000000000000000003E007F80E380C18A
:1045D00000C000C000C000C000C000C080C180E3B7
:1045E000007F003E000000000000000000FF00FF10
:1045F00000180018001800180018001800180018FB
:10460000001800180018001800000000000000004A
:1046100080C180C180C180E3806300730037003EA9
:10462000001E000C000C001C007800700000000050
:1046300000000000000C000C003F807F806DC0CCAB
:10464000C0CCC0CCC0CC806D807F003F000C000C83
:10465000000000000000000080C180C10063006312
:1046600000360036001C001C003600360063006374
:1046700080C180C1000000000000000080C180C136
:1046800080C180C180C180C180C180C180C180C122
:1046900080C180C1C0FFC07FC000000000000000DA
:1046A00080C180C180C180C180C180C180C180E1E2
:1046B000807F803F80018001800180010000000038
:1046C00000000000C0C0C0CCC0CCC0CCC0CCC0CCAE
:1046D000C0CCC0CCC0CCC0CCC0CCC0CCC0FFC0FF14
:1046E0000000000000000000C0C0C0CCC0CCC0CCA6
:1046F000C0CCC0CCC0CCC0CCC0CCC0CCC0CCC0CC5A
:10470000C0FFC0FFC00000000000000000F000F08B
:10471000003000300030003E003F80338031803177
:1047200080318033003F003E0000000000000000A8
:10473000C0C0C0C0C0C0C0C0C0C0C0F8C0FCC0CEF7
:10474000C0C6C0C6C0C6C0CEC0FCC0F800000000D5
:104750000000000000C000C000C000C000C000FC9D
:1047600000FE00C700C300C300C300C700FE00FC7A
:104770000000000000000000003E007F80E380C1D8
:104780008001801F801F8001800180C180C180E383
:10479000007F003E000000000000000000C780CF46
:1047A000C0DDC0D8C0D8C0F8C0F8C0D8C0D8C0D804
:1047B000C0D8C0DD80CF00C70000000000000000AE
:1047C000803F807F80E180C180C180E1807F803F29
:1047D0008071806180E180C180C180C100000000E3
:1047E000000000000000000000000000003E00FF8C
:1047F00000C30003003F00FB00C300C780FF8079B7
:1048000000000000000000008000801F003E0060EB
:10481000005C00BF00E380C180C180C180C1006333
:10482000007F001C000000000000000000000000ED
:104830000000000000FF80FF80C100FF00FE00C3F9
:1048400080C180C180FF00FF000000000000000068
:10485000000000000000000000FF00FF00C000C0DA
:1048600000C000C000C000C000C000C000000000C8
:10487000000000000000000000000000003F003FBA
:1048800000330033003300630063004380FF80FF88
:1048900080C10000000000000000000000000000D7
:1048A000003E007F80E380C180FF80FF00C080E188
:1048B000007F003E0000000000000000000000003B
:1048C00000000000408CC0CC806D002D001E003F19
:1048D000002D806DC0CC408C000000000000000066
:1048E0000000000000000000007F80FF80C1009FEA
:1048F000001F8001808180C300FF007E0000000057
:1049000000000000000000000000000080C180C323
:1049100080C380C780CD80D980F180E180E180C1F3
:10492000000000000000000000000022001C000049
:1049300080C180C380C380C780CD80D980F180E1F1
:1049400080E180C1000000000000000000000000C5
:104950000000000000C300C600CC00D800F000F842
:1049600000CC00C400C600C300000000000000002E
:104970000000000000000000801F803F8071806107
:10498000806180618061806180E180C10000000001
:1049900000000000000000000000000080C180C195
:1049A00080E380F780FF80DD80C980C180C180C145
:1049B00000000000000000000000000000000000F7
:1049C00080C180C180C180FF80FF80C180C180C163
:1049D00080C180C100000000000000000000000055
:1049E00000000000003E007F80E380C180C180C1E4
:1049F00080C180E3007F003E000000000000000056
:104A0000000000000000000000FF80FF80C180C1A6
:104A100080C180C180C180C180C180C10000000010
:104A200000000000000000000000000000DE00FFA9
:104A300080E380C180C180E300FF00DE00C000C0D1
:104A40000000000000000000000000000000000066
:104A5000003E007F80E380C100C000C080C180E3D1
:104A6000007F003E00000000000000000000000089
:104A70000000000000FF00FF0018001800180018D8
:104A800000180018001800180000000000000000C6
:104A9000000000000000000080C180C100630033FE
:104AA0000036001C001C0038003000700060000060
:104AB000000000000000000000000000000C000CDE
:104AC000807FC0FFC0CCC0CCC0FF807F000C000C3A
:104AD00000000000000000000000000000000000D6
:104AE000808080C100630036001C001C003600631B
:104AF00080C1808000000000000000000000000075
:104B00000000000000C300C300C300C300C300C313
:104B100000C300C300FF807F800100000000000090
:104B2000000000000000000080C180C180C180C181
:104B300080E1807F803F80018001800100000000D3
:104B4000000000000000000000000000C0CCC0CC4D
:104B5000C0CCC0CCC0CCC0CCC0CCC0CCC0FFC0FF8F
:104B60000000000000000000000000000000000045
:104B7000C0CCC0CCC0CCC0CCC0CCC0CCC0CCC0CCD5
:104B8000C0FFC0FFC00000000000000000000000E7
:104B90000000000000F000F00030003E003F8033D5
:104BA00080318033003F003E000000000000000024
:104BB0000000000000000000C0C0C0C0C0C0C0F8BD
:104BC000C0FCC0CEC0C6C0CEC0FCC0F80000000013
:104BD00000000000000000000000000000C000C055
:104BE00000C000FE00FF80C380C180C300FF00FE44
:104BF00000000000000000000000000000000000B5
:104C0000003E007F80E180CF800F800180C180E383
:104C1000007F003E000000000000000000000000D7
:104C20000000000000C780CFC0DDC0D8C0F8C0F8C9
:104C3000C0D8C0DD80CF00C7000000000000000029
:104C40000000000000000000807F80FF80C180C164
:104C5000807F803F8061806180C180C10000000052
:104C60000000002280FF80FF00C000C000C000FFE5
:104C700000FF00C000C000C000C000C080FF80FF77
:104C80000000000000000000000000000014000010
:104C9000003E007F80E380C180FF80FF00C080E194
:104CA000007F003E00000000000000000000000047
:104CB00000000000000000000000000000000000F4
:104CC00000000000000000000000000000000000E4
:104CD0000000000000000000000000000000E003F1
:104CE000E003E003E003E003E003E003E003C003CC
:104CF000C003C001C001C001C001C001000000002C
:104D00000000E003E003E0030000000000000000FA
:104D100000003C1E3C1E3C1E3C1E3C1E3C1E3C1E1D
:104D20000000000000000000000000000000000083
:104D30000000000000000000000000000000000073
:104D4000000000000000CE01CE03DE039E039C03A2
:104D50009C07FF3FFF7F3807380F780F780F780EDA
:104D6000FFFFFFFFF01EF01CE01CE03CE03DE039DF
:104D700000000000000000000000FC03FE0FEE1F1A
:104D8000E01EE01EE01EE01EE01FE00FE007F00363
:104D9000FC01FE01FE01FE01FE01FE01FE01FE3DE1
:104DA000FC3FF00FE001E001000000000000033EC6
:104DB00007F78FE78EE79EE3BCE3B8E7F8E7F0F785
:104DC000E03FC001FF03FF07F307F30FF31EF33CBF
:104DD000F338F3787FF03FE00000000000000000AF
:104DE0000000E007F80F780F781F781F781F780F02
:104DF000F00FE00F801FC37FC3FBE7F3F7F1F7F07D
:104E0000FFF07FF03EF87F7CFF3FEF1F00000000C7
:104E1000000000000000E003E003E003E003E00323
:104E2000C003C001000000000000000000000000FE
:104E30000000000000000000000000000000000072
:104E4000000000000000000000003F007C00F001B6
:104E5000E001C003C00780078007800F000F000F2C
:104E6000000F000F000F000F800F80078007C007A2
:104E7000C003E001F0017C003F000F000000007E55
:104E8000001FC007C003E001F001F000F000F800CF
:104E9000780078007800780078007800F800F0005A
:104EA000F000F001E001C003C007001F007E0078A1
:104EB0000000E003C003C001CE39FF3F7F3F200365
:104EC0007003F807780F3C1F380600000000000050
:104ED00000000000000000000000000000000000D2
:104EE00000000000000000000000000000000000C2
:104EF0000000C001C001C001C001C001C001C0016B
:104F0000FFFFFFFFC001C001C001C001C001C0011F
:104F10000000000000000000000000000000000091
:104F20000000000000000000000000000000000081
:104F3000000000000000000000000000E003E003AB
:104F4000E003E003E001E001E001C00180030000B4
:104F50000000000000000000000000000000000051
:104F600000000000FE3FFE3F0000000000000000C7
:104F70000000000000000000000000000000000031
:104F80000000000000000000000000000000000021
:104F90000000000000000000000000000000000011
:104FA00000000000E003E003E003E0030000000075
:104FB0000000000000000F000F001E001E003C005B
:104FC0003C0078007800F000F000E001E001C00350
:104FD000C00380078007000F000F001E001E003C6A
:104FE000003C0078007800F00000F007F80F7C1F0C
:104FF0003E3E1E3C1F7C1F7C0F780F780F780F7889
:105000000F780F780F781F7C1F7C1E3C3E3E7C1F64
:10501000F80FF00700000000000000000000F000A2
:10502000F007F03FF03FF001F001F001F001F00176
:10503000F001F001F001F001F001F001F001F001E8
:10504000F001F001FF3FFF3F000000000000000002
:105050000000E00FF83F7C3C3C003E003E003E007C
:105060003C003C007C00F800F001E003C007800732
:10507000000F001E003E003CFE3FFE3F000000000F
:10508000000000000000F00FF81F7C1C3E003E00F6
:105090003E003C003C00F800F00FF80F7C003E00A2
:1050A0001E001E001E001E003E007C1CF81FE01F9C
:1050B000000000000000000000007800F800F80088
:1050C000F801F803F807F807780F781E781E783C87
:1050D00078787878FFFFFFFF780078007800780014
:1050E0007800780000000000000000000000FC1FB5
:1050F000FC1FFC1F001E001E001E001E001EE01FE5
:10510000F81FFC007C003E003E001E003E003E00FA
:105110003C007C1CF81FE01F0000000000000000A5
:105120000000FC01FE078E0F001F001E003E003C29
:10513000003CF83DFC3F3E7F1F7E0F3C0F3C0F3C88
:105140000F3C0F3E1F1E3E1FFC0FF003000000002F
:10515000000000000000FF3FFF3FFF3F0F001E0068
:105160001E003C0038007800F000F000E001E00193
:10517000C003C0038007800F800F000F001F001FB7
:1051800000000000000000000000F807FC0F3E1FB8
:105190001E1E1E3E1E3E1E1E3C1FF80FF007F80F7F
:1051A000FC1E3E3E1F3C1F7C0F7C0F7C1F3C3E3F85
:1051B000FC1FF00700000000000000000000F007E6
:1051C000F80F7C1E3E3C1E3C1F7C1F7C1F7C1F7CFE
:1051D0001F3C3F3EFF1FEF071F001E001E003E004A
:1051E0003C00F838F03FE01F000000000000000025
:1051F0000000000000000000000000000000E003CC
:10520000E003E003E00300000000000000000000F5
:1052100000000000E003E003E003E0030000000002
:10522000000000000000000000000000000000007E
:105230000000E003E003E003E003000000000000E2
:105240000000000000000000E003E003E003E003D2
:10525000E001E001E001C003800300000000000065
:1052600000000000000003000F003F00FC00F003FE
:10527000C00F003F00FE003FC00FF003FC003F00E6
:105280000F0003000000000000000000000000000C
:10529000000000000000000000000000000000000E
:1052A0000000FFFFFFFF000000000000FFFFFFFF06
:1052B00000000000000000000000000000000000EE
:1052C000000000000000000000000000000000E0FE
:1052D00000F8007E801FE007F8017E001F007E00BE
:1052E000F801E007801F007E00F800E000000000E9
:1052F000000000000000F01FFC3F3E381F381F3840
:105300001E001E003C007800F000E001C003C00356
:10531000C007C007000000000000C007C007C007AA
:1053200000000000000000000000F803FE0F1E1F38
:105330000F3E7F3CFF78EF79C773C7F38FF38FF38E
:105340008FF39FF39FF3FF73FF7BF779003C1C1FE4
:10535000FC0FF80300000000000000000000000047
:1053600000000000E003E003F007F007F007780F0B
:10537000780F7C0E3C1E3C1E3E3CFE3FFF3F1F78DC
:105380000F780FF007F007F00000000000000000A9
:105390000000000000000000F83FFC3F3E3C1E3CC7
:1053A0001E3C1E3C3E3C7C3CF03FF83F7E3C1F3C9C
:1053B0001F3C0F3C0F3C1F3CFE3FF83F000000002D
:1053C000000000000000000000000000FF01FF07D7
:1053D000871F003E003C007C007800780078007851
:1053E0000078007C007C003E003F831FFF07FF0128
:1053F00000000000000000000000000000000000AD
:10540000F07FFC7F7E781F781F780F780F780F78F9
:105410000F780F780F780F780F781F781E787E78C6
:10542000F87FE07F000000000000000000000000A6
:1054300000000000FF3FFF3F003E003E003E003EF8
:10544000003E003EFE3FFE3F003E003E003E003E6E
:10545000003E003EFF3FFF3F000000000000000054
:105460000000000000000000FF1FFF1F001E001EC4
:10547000001E001E001E001EFF1FFF1F001E001E3C
:10548000001E001E001E001E001E001E0000000068
:10549000000000000000000000000000FE03FF0FFD
:1054A000871F003E007C007C007800F800F87FF841
:1054B0007FF80F780F7C0F7C0F3E8F1FFF0FFE03CE
:1054C00000000000000000000000000000000000DC
:1054D0001F7C1F7C1F7C1F7C1F7C1F7C1F7C1F7CF4
:1054E000FF7FFF7F1F7C1F7C1F7C1F7C1F7C1F7C1E
:1054F0001F7C1F7C00000000000000000000000076
:1055000000000000FF3FFF3FE003E003E003E00393
:10551000E003E003E003E003E003E003E003E00373
:10552000E003E003FF3FFF3F000000000000000039
:105530000000000000000000FC1FFC1F7C007C003D
:105540007C007C007C007C007C007C007C007C007B
:105550007C0078007800F838F03FC03F0000000081
:105560000000000000000000000000001F3C1E3C86
:105570003C3C783CF03CE03DE03FC03F803FC03FDA
:10558000E03FF03DF03C783C7C3C3E3C1F3C0F3C17
:10559000000000000000000000000000000000000B
:1055A000003E003E003E003E003E003E003E003E0B
:1055B000003E003E003E003E003E003E003E003EFB
:1055C000FF3FFF3F0000000000000000000000005F
:1055D000000000001FF81FFC1FFC3FFE3FFE3FFEC7
:1055E0007FFF77FF77FFF7F7E7F7E7F3E7F3C7F317
:1055F00007F007F007F007F00000000000000000CF
:1056000000000000000000000F7C0F7C0F7E0F7F69
:105610000F7F8F7F8F7FCF7FEF7BEF79FF79FF78D1
:10562000FF787F783F783F781F781F780000000070
:10563000000000000000000000000000F007FC1F58
:105640003E3E1F7C0F780F780FF80FF80FF80FF819
:105650000FF80FF80F780F781F7C3E3EFC1FF00705
:10566000000000000000000000000000000000003A
:10567000FC3FFF3F1F3E0F3E0F3E0F3E0F3E1F3EC3
:105680003F3EFC3FF03F003E003E003E003E003EFD
:10569000003E003E0000000000000000000000008E
:1056A00000000000F007FC1F3E3E1F7C0F780F78C3
:1056B0000FF80FF80FF80FF80FF80FF80F780F78B2
:1056C0001F7C3E3EFC1FF8077C003F000F000300DC
:1056D0000000000000000000F03FFC3F7E3C3E3C2C
:1056E0001E3C1E3C3E3C3C3CFC3CF03FE03FF03D61
:1056F000F83C7C3C3E3C1E3C1F3C0F3C0000000044
:10570000000000000000000000000000FC07FE1F79
:105710000E3E003C003C003C003EC01FF80FFE0364
:105720007F001F000F000F001F203E3CFC3FF01FBA
:105730000000000000000000000000000000000069
:10574000FFFFFFFFE003E003E003E003E003E0030B
:10575000E003E003E003E003E003E003E003E00331
:10576000E003E00300000000000000000000000073
:10577000000000000F7C0F7C0F7C0F7C0F7C0F7CE7
:105780000F7C0F7C0F7C0F7C0F7C0F7C0F7C1E3CF2
:105790001E3C3E3EFC1FF007000000000000000021
:1057A000000000000000000007F007F007F80F7885
:1057B0000F7C1E3C1E3C1E3E3C1E3C1F781F780F7B
:1057C000F80FF007F007F007E003E0030000000027
:1057D00000000000000000000000000003E003F0F3
:1057E00003F007F0E7F3E7F3E7F3E773F77BF77FFF
:1057F000FF7F7F7F7F7F7E7F7E3F3E3E3E3E3E3E01
:105800000000000000000000000000000000000098
:1058100007F80F7C1E3E3E3E3C1FF80FF007E007E6
:10582000E003E003F007F80F7C0F7C1E3E3C1F787E
:105830000F780FF0000000000000000000000000E2
:105840000000000007F807780F7C1E3C1E3E3C1F3E
:10585000780FF80FF007E003E003E003E003E00354
:10586000E003E003E003E0030000000000000000AC
:105870000000000000000000FF7FFF7F0F001F00FE
:105880003E007C00F800F000E001E003C007800F5C
:10589000000F001E003E007CFF7FFF7F0000000025
:1058A000000000000000FF078007800780078007D6
:1058B00080078007800780078007800780078007B0
:1058C00080078007800780078007800780078007A0
:1058D00080078007FF07FF07000000780078003C82
:1058E000003C001E001E000F000F80078007C00351
:1058F000C003E001E001F000F000780078003C0017
:105900003C001E001E000F000F0007000000F07F8B
:10591000F000F000F000F000F000F000F000F00007
:10592000F000F000F000F000F000F000F000F000F7
:10593000F000F000F000F000F000F000F07FF07FE9
:105940000000C000C001C001E003E003F007F00761
:105950007807780F380F3C1E3C1E1E3C1E3C0F384B
:105960000F78077800000000000000000000000031
:105970000000000000000000000000000000000027
:105980000000000000000000000000000000000017
:105990000000000000000000000000000000000007
:1059A000FFFFFFFF000000000000F000000000000B
:1059B00000000000000000000000000000000000E7
:1059C00000000000000000000000000000000000D7
:1059D00000000000000000000000000000000000C7
:1059E00000000000000000000000F80FFC3F7C3CBD
:1059F0003E003E003E00FE07FE1F3E3E3E7C3E78DF
:105A00003E7C7E7CFF3FCF1F0000000000000000B6
:105A10000000003C003C003C003C003C003CF83DE9
:105A2000FE3F3E3F1F3E0F3C0F3C0F3C0F3C0F3CE8
:105A30000F3C1F3C1E3C3E3FFC3FF03B0000000083
:105A40000000000000000000000000000000000056
:105A50000000FE03FF0F871F003E003E003C007C5D
:105A6000007C007C003C003E003E871FFF0FFE03D1
:105A7000000000000000000000001F001F001F00C9
:105A80001F001F001F00FF07FF1F3F3E1F3C1F7C22
:105A90001F7C1F7C1F781F781F7C1F7C3F3C7F3E34
:105AA000FF1FDF0F000000000000000000000000EA
:105AB00000000000000000000000F803FC0F3E1F83
:105AC0001E3E1F3C1F7CFF7FFF7F007C007C003C54
:105AD000003E071FFF0FFE03000000000000000053
